:100C560020200020203A20203A202000616C61727A
:0E0C66006D54006E6F77540000000000000017
:0B0CDC00C100012600012700012900D3
:03001300020008E0
:03000800D20032F1
:080D3D007F027EC7DEFEDFFC31
:010D4500228B
:100C0C008F128D138B14E526B5341BE527B53516DD
:100C1C00E529B53611D295120D3DC295120D3D3018
:070C2C0000F3C295C2002293
:10097E00120865AB36AD35AF34120C0CE526FB7A9A
:10098E00007516027D017F01120C92E527FB7A009D
:10099E007516027D047F01120C92E529FB7A007513
:1009AE0016027D077F01120C92E534FB3395E0FAB7
:1009BE007516027D017F02120C92E535FB3395E030
:1009CE00FA7516027D047F02120C92E536FB339502
:0C09DE00E0FA7516027D077F02020C9201
:100016008F23E528640360030200E174312FF8069C
:10002600D3E531648094E34003E4F531D3E53264EB
:1000360080948C4003753201E53264016023E53219
:100046006403601DE53264056017E53264076011DC
:10005600E5326408600BE532640A6005E532B40CEB
:100066000BD3E5336480949F404D8048E5326404A9
:100076006011E5326406600BE53264096005E5321D
:10008600B40B0BD3E5336480949E402B8026E53277
:10009600B40224E53175F00412034FAFF0EF700B94
:1000A600D3E5336480949D400E8009D3E5336480A4
:1000B600949C4003753301D3E534648094974003E0
:1000C600E4F534D3E535648094BB4003E4F535D3D9
:1000D600E536648094BB4003E4F536E528640460A5
:1000E600030201DC74312523F816C3E531648094DC
:1000F600805003753163C3E5326480948150037583
:10010600320CE53264016023E5326403601DE5329A
:1001160064056017E53264076011E5326408600B18
:10012600E532640A6005E532B40C17C3E533648032
:100136009481500375331FD3E5336480949F4072D6
:10014600806DE53264046011E5326406600BE532C9
:1001560064096005E532B40B17C3E5336480948106
:10016600500375331ED3E5336480949E4044803F2C
:10017600E5326402703CE53175F00412034FAFF0CE
:10018600EF7017C3E53364809481500375331DD334
:10019600E5336480949D401A8015C3E533648094EA
:1001A60081500375331CD3E5336480949C400375FA
:1001B6003301C3E534648094805003753417C3E576
:1001C6003564809480500375353BC3E5366480946E
:1001D60080500375363BE523B40314E525B4010FBF
:1001E6007BFF7A0C79567D017F02120C338011E574
:1001F60034FB3395E0FA7516027D017F02120C92EC
:10020600E523B40414E525B4010F7BFF7A0C795677
:100216007D047F02120C338011E535FB3395E0FA3D
:100226007516027D047F02120C92E523B40512E5D1
:1002360025B4010D7BFF7A0C79567D077F02020CEF
:1002460033E536FB3395E0FA7516027D077F021219
:030256000C9222E5
:10070800750803E4F509780A7C00FD7BFF7A0C790B
:100718006EFE7F06120329E4F510120D061200037F
:10072800120CAF7BFF7A0C79597D017F01120C33D3
:100738007BFF7A0C79597D017F02120C337BFF7A9B
:100748000C79627D0B7F01120C337BFF7A0C79697F
:100758007D0B7F02120C33D2AFD2AAD28A12058E39
:100768001209EA8F28E528B40116E52470077524D4
:1007780001F523800BE524B40106E4F52412058E67
:10078800E528B4020A0508E508B40603750803E578
:100798002414600804700A12097E8005AF0812004C
:1007A800161204058F09E50960B624FA601A146068
:1007B8001C24FE601D14601F14602124FD60222487
:1007C800097021750904801C7509058017750906CB
:1007D8008012750907800D75090880087509098058
:1007E80003750964C3E509648094815003020768AE
:1007F800D3E509648094E44003020768E509B4641A
:1008080003E4F509740A2510F8A6090510E510B4E3
:100818000603E4F510E50A75F00AA4250BF526E5AC
:100828000C75F00AA4250DF527E50E75F00AA42528
:100838000FF529E526D3941740051510E4F526E5AC
:1008480027D3943B40051510E4F527E529D3943BBD
:0D08580050030207681510E4F52902076837
:03000B00020B2FB6
:090B2F00C0E0C0D075D000C00781
:100B3800758A18758CFC0522E52270020521C3947C
:100B4800F4E52194014012752100752200E5257015
:090B5800047F0180027F008F255B
:070B6100D007D0D0D0E03234
:060D1A00C2A58F80D2A7E4
:080D20007F027EEFDEFEDFFC26
:010D280022A8
:0A0D2900C2A6120D1AC2A7020D2087
:100C7400CFCDCFCECCCE1203B07C007D0A1203B010
:040C8400ED2430FF2C
:0A0C8800D2A6120D1AC2A7020D2019
:100CC600AE07BE0104ED148006BE0209ED243F44C2
:060CD60080FF120D29222F
:100D06007F38120D297F0C120D297F06120D297FBF
:040D160001020D29A0
:0A0D3300AC03120CC6AF04020C88DA
:060C33008B128A138914E4
:100C3900120CC6E4FDAB12AA13A9148D82758300A8
:0C0C4900120371FF6006120C880D80E998
:010C5500227C
:0C0BD9007F0AEA24FFFDE434FFFC7E00EC
:080BE5008E178F188C198D1A70
:100BED007F017E00E4FBEBC3951AE5196480F87470
:0E0BFD008098500AAC17AD1812039E0B80E8CA
:010C0B0022C6
:040C92008A148B1520
:100C9600120CC6AA16EAD39400400D120BD9AC1456
:080CA600AD15120C741A80ED6B
:010CAE002223
:100AF500120CC6C3EA64809480400B7F2B120C88CD
:100B05008A2F8B30800E7F2D120C88C3E49BF53025
:100B1500E49AF52FAA2EEAD39400400D120BD9AC16
:090B25002FAD30120C741A80EDA2
:010B2E0022A4
:040B68008A1D8B1E39
:100B6C00120CC6AA1FEAD3940040297F10120BDB8B
:100B7C00AC1DAD1ECFCDCFCECCCE1203B0EF540FEB
:100B8C00FEC3940AEE5004243080022437FF120C6A
:040B9C00881A80D162
:010BA0002232
:040BA1008A3A8B3BC6
:100BA500120CC6AA3CEAD394004028EA24FFFDE4CF
:100BB50034FFFC7F027E00120BE5AC3AAD3BCFCD96
:100BC500CFCECCCE1203B0EF54012430FF120C88E7
:030BD5001A80D2B1
:010BD80022FA
:090CE7000731130B100C3B37061A
:05000300C2B5C2B622E7
:050A4B002DFDEE3CFC56
:060A50008C128D13AB07B0
:100A5600D2B5E4FD74017E00A805088005C333CE37
:100A660033CED8F9FFEBF582EF558224FF92B4D24C
:100A7600B6C2B60DBD08DDE4FD74017E00A805080A
:100A86008005C333CE33CED8F9FFE5125EFEE513FB
:100A96005F4E24FF92B4D2B6C2B60DBD08DBC2B516
:010AA600222D
:020AA700AD0799
:100AA900E4F9430501D2B5FB74017E00A80308806F
:100AB90005C333CE33CED8F9FFEDF582EF55822445
:100AC900FF92B4C2B6D2B60BBB08DDE4FBD2B6C204
:100AD900B630B40D7401A803088002C333D8FC42B0
:0B0AE900010BBB08E8C2B5C2B4AF01AE
:010AF40022DF
:10058E00E4FDFC7F8E120A50E53175F00A12034F1E
:10059E00FF3395E0FEEFC4F8540FC868FFEEC45465
:1005AE00F048FEE53175F00A12034FADF0ED3395CC
:1005BE00E0FCEF7F8C120A4BE53275F00A12034F06
:1005CE00FF3395E0FEEFC4F8540FC868FFEEC45435
:1005DE00F048FEE53275F00A12034FADF0ED33959B
:1005EE00E0FCEF7F88120A4BE53375F00A12034FD9
:1005FE00FF3395E0FEEFC4F8540FC868FFEEC45405
:10060E00F048FEE53375F00A12034FADF0ED339569
:10061E00E0FCEF2DFDEE3CFC7F86120A50E53475B2
:10062E00F00A12034FFF3395E0FEEFC4F8540FC8E3
:10063E0068FFEEC454F048FEE53475F00A12034F1D
:10064E00ADF0ED3395E0FCEF2DFDEE3CFC7F84121A
:10065E000A50E53575F00A12034FFF3395E0FEEFB1
:10066E00C4F8540FC868FFEEC454F048FEE5357563
:10067E00F00A12034FADF0ED3395E0FCEF2DFDEED9
:10068E003CFC7F82120A50E53675F00A12034FFFCA
:10069E003395E0FEEFC4F8540FC868FFEEC454F073
:1006AE0048FEE53675F00A12034FADF0ED3395E0D6
:1006BE00FCEF2DFDEE3CFC7F80120A50E53775F005
:1006CE000A12034FFF3395E0FEEFC4F8540FC868CB
:1006DE00FFEEC454F048FEE53775F00A12034FAD35
:1006EE00F0ED3395E0FCEF2DFDEE3CFC7F8A120A17
:0A06FE00507D807C007F8E020A50C0
:100865007F8C120AA7EFC4540F75F00AA4FEEF544B
:100875000F2EF5317F88120AA7EFC4540F75F00AC1
:10088500A4FEEF540F2EF5327F86120AA7EFC4544B
:100895000F75F00AA4FEEF540F2EF5337F84120A6C
:1008A500A7EFC4540F75F00AA4FEEF540F2EF534CC
:1008B5007F82120AA7EFC4540F75F00AA4FEEF5405
:1008C5000F2EF5357F80120AA7EFC4540F75F00A75
:1008D500A4FEEF540F2EF5367F8A120AA7EFC454F3
:0C08E5000F75F00AA4FEEF540F2EF5373B
:0108F10022E4
:100CF100EF1FAC0670011E4C600A7D027CEFDCFE2A
:040D0100DDFC80ECA9
:010D050022CB
:1009EA00E4F51220B1137F14FE120CF130B1FD7F31
:1009FA00147E00120CF175120120B0147F147E00CF
:100A0A00120CF130B0FD7F147E00120CF175120247
:100A1A0020B2147F147E00120CF130B2FD7F147ED6
:100A2A0000120CF175120320B3147F147E00120C0D
:100A3A00F130B3FD7F147E00120CF1751204AF126F
:010A4A002289
:100CAF005389F0438901758A18758CFCC28DD28CDB
:070CBF00D2A9D2AFC2B92295
:10040500E4F5127590FFC2932097137F14FE120C2A
:10041500F13097FD7F147E00120CF17512012096C4
:10042500147F147E00120CF13096FD7F147E0012AD
:100435000CF17512052095147F147E00120CF13015
:1004450095FD7F147E00120CF17512092094147F1E
:10045500147E00120CF13094FD7F147E00120CF115
:1004650075120D7590FFC2922097147F147E0012AD
:100475000CF13097FD7F147E00120CF175120220ED
:1004850096147F147E00120CF13096FD7F147E00C9
:10049500120CF17512062095147F147E00120CF1D2
:1004A5003095FD7F147E00120CF175120A2094140C
:1004B5007F147E00120CF13094FD7F147E00120C27
:1004C500F175120E7590FFC2912097147F147E006E
:1004D500120CF13097FD7F147E00120CF17512039A
:1004E5002096147F147E00120CF13096FD7F147E49
:1004F50000120CF17512072095147F147E00120C62
:10050500F13095FD7F147E00120CF175120B2094CD
:10051500147F147E00120CF13094FD7F147E0012BE
:100525000CF175120F7590FFC2902097147F147E01
:1005350000120CF13097FD7F147E00120CF175123C
:10054500042096147F147E00120CF13096FD7F1462
:100555007E00120CF17512082095147F147E00128E
:100565000CF13095FD7F147E00120CF175120C20F4
:1005750094147F147E00120CF13094FD7F147E00DC
:08058500120CF1751210AF1207
:01058D00224B
:030000000208F201
:0C08F200787FE4F6D8FD75813C020939DE
:10025900E709F608DFFA8046E709F208DFFA803E87
:1002690088828C83E709F0A3DFFA8032E309F60874
:10027900DFFA8078E309F208DFFA807088828C83DC
:10028900E309F0A3DFFA806489828A83E0A3F60890
:10029900DFFA805889828A83E0A3F208DFFA804C6A
:1002A90080D280FA80C680D4806980F28033801041
:1002B90080A680EA809A80A880DA80E280CA8033AA
:1002C90089828A83ECFAE493A3C8C582C8CCC58322
:1002D900CCF0A3C8C582C8CCC583CCDFE9DEE780F2
:1002E9000D89828A83E493A3F608DFF9ECFAA9F071
:1002F900EDFB2289828A83ECFAE0A3C8C582C8CCC7
:10030900C583CCF0A3C8C582C8CCC583CCDFEADEDF
:10031900E880DB89828A83E493A3F208DFF980CC41
:1003290088F0EF60010E4E60C388F0ED2402B4043A
:100339000050B9F582EB2402B4040050AF232345E1
:0603490082239002A9735B
:10034F00C2D530F707B2D563F0FF05F030E70CB236
:10035F00D5F4048463F0FF05F080018430D502F4F6
:02036F00042266
:10037100BB010CE58229F582E5833AF583E0225041
:1003810006E92582F8E622BBFE06E92582F8E2228B
:0D039100E58229F582E5833AF583E49322A5
:10039E00EF8DF0A4A8F0CF8CF0A428CE8DF0A42E73
:0203AE00FE222D
:1003B000BC000BBE0029EF8DF084FFADF022E4CC31
:1003C000F875F008EF2FFFEE33FEEC33FCEE9DECFA
:1003D000984005FCEE9DFE0FD5F0E9E4CEFD22ED40
:1003E000F8F5F0EE8420D21CFEADF075F008EF2F8A
:1003F000FFED33FD4007985006D5F0F222C398FD7B
:050400000FD5F0EA2217
:1008FE00020708E493A3F8E493A34003F68001F201
:10090E0008DFF48029E493A3F85407240CC8C333FA
:10091E00C4540F4420C8834004F456800146F6DFC9
:10092E00E4800B0102040810204080900CDCE47E71
:10093E00019360BCA3FF543F30E509541FFEE493BE
:10094E00A360010ECF54C025E060A840B8E493A385
:10095E00FAE493A3F8E493A3C8C582C8CAC583CAB0
:10096E00F0A3C8C582C8CAC583CADFE9DEE780BE68
:010CF0000003
:00000001FF
