:0C0435000A0C3F065B4F666D7D077F6F71
:10028700EF14B40800505490029C75F003A4C58382
:1002970025F0C583730202B40202B80202BC02024F
:1002A700C00202C40202CC0202D40202DCD2A48041
:1002B7000ED2A48012D2A48016D2A4801AC2A4D2CD
:1002C700A3D2A28016C2A4D2A3C2A2800EC2A4C285
:1002D700A3D2A28006C2A4C2A3C2A2740C2DF8E6C0
:0D02E700F5807F017E00120420E4F58022E6
:1002F400E4F516F5171204427FE87E031204201277
:1003040003578F0B8E0A8D098C081203F3120442D3
:100314001203578F0B8E0A8D098C081200E17C00A2
:100324007D0A120162EF2430FF12044FAF0BAE0AB4
:10033400AD09AC081200E17C007D0A120162ED24D3
:1003440030FF12044F7F2012044F7FE87E03120413
:030354002080BA4C
:10042000EF1FAC0670011E4C600A7D027CEFDCFE03
:04043000DDFC80EC83
:0104340022A5
:1003F30075984043878053890F438920758BF37524
:070403008DF3C2ABD28E2283
:08044F008F993099FDC299223A
:100357001203837FCC1203DA7FBE1203DA1203A1E2
:100367008F181203A1EFFEE518FFFDAC06EC120093
:0B037700A8E4FBFA7980784112000630
:010382002258
:0D0442001203837FCC1203DA7F440203DA39
:10038300C2AFD2B7C2B77FF7DFFED2B77F20DFFE9F
:0D039300A2B7E433FE7FF7DFFED2AFAF0666
:0103A000223A
:10040A00C2AFC2B77E04DEFEEF24FF92B77E18DECB
:05041A00FED2B7D2AFD5
:01041F0022BA
:1003BE00C2AFC2B77F02DFFED2B77F02DFFEA2B7A7
:0B03CE00E433FE7F18DFFED2AFAF0665
:0103D9002201
:0203DA00AD076D
:1003DC00E4FC7401A804088002C333D8FC5DFF124E
:0603EC00040A0CBC08EC41
:0103F20022E8
:1003A100E4FDFC1203BEEF600D7401A80408800295
:0C03B100C333D8FC42050CBC08E9AF05C2
:0103BD00221D
:10000300020157EC5D046005E85904700302014DD9
:10001300120118580460F6EC4860F2EC7004FDFE1F
:10002300FF22C860DB2481C85009C39860025006D0
:100033000201549850CAF582E9294B4A7005AB82F4
:1000430002014375F0007C1A7880C3EF9BEE9AEDB2
:1000530099400DC3EF9BFFEE9AFEED99FDE842F048
:10006300DC23ACF0D0E0FFD0E0FED0E0FDAB82209B
:10007300E7101BEB60BAEC2CFCEF33FFEE33FEED25
:1000830033FD02012FE803F830E705C0F075F000F7
:10009300EF2FFFEE33FEED33FD40B830E7C280AA09
:1000A30075F020800E75F010800575F0087D007ED8
:1000B300007F003392D530D503120198EC33401002
:1000C300EF33FFEE33FEED33FDEC33FCD5F0ED22E1
:0E00D300E5F0247EA2D513CC92E7CDCEFF221D
:1000E100EDD2E7CD33EC3392D524814006E4FFFE17
:1000F100FDFC22FCE4CFCECDCC24E0501174FF8076
:10010100EDC3CC13CCCD13CDCE13CECF13CF047012
:07011100F030D5DE02019879
:10011800E9D2E7C933E833F892D5EDD2E7CD33EC2D
:0701280033FC5002B2D522A6
:10012F00EC30E7100FBF000C0EBE00080DBD000431
:10013F000BEB6014A2D5EB13FCED92E7FD2274FFDD
:10014F00FCFDFEFF22E480F8A2D574FF13FC7D8036
:03015F00E480EF4A
:030000000201FBFF
:0C01FB00787FE4F6D8FD758118020242FE
:10016200C2D5EC30E709B2D5E4C39DFDE49CFCEEB8
:1001720030E715B2D5E4C39FFFE49EFE1201A6C389
:10018200E49DFDE49CFC80031201A630D507C3E484
:060192009FFFE49EFE2227
:0E019800C3E49FFFE49EFEE49DFDE49CFC2278
:100207000202F4E493A3F8E493A34003F68001F217
:1002170008DFF48029E493A3F85407240CC8C333F8
:10022700C4540F4420C8834004F456800146F6DFC7
:10023700E4800B0102040810204080900435E47E1E
:10024700019360BCA3FF543F30E509541FFEE493BC
:10025700A360010ECF54C025E060A840B8E493A383
:10026700FAE493A3F8E493A3C8C582C8CAC583CAAE
:10027700F0A3C8C582C8CAC583CADFE9DEE780BE66
:0104410000BA
:1001A600BC000BBE0029EF8DF084FFADF022E4CC3D
:1001B600F875F008EF2FFFEE33FEEC33FCEE9DEC06
:1001C600984005FCEE9DFE0FD5F0E9E4CEFD22ED4C
:1001D600F8F5F0EE8420D21CFEADF075F008EF2F96
:1001E600FFED33FD4007985006D5F0F222C398FD87
:0501F6000FD5F0EA2224
:00000001FF
