:030000000208777C
:0C087700787FE4F6D8FD75810802088344
:0E0854007F647E0012086275A0FD7F647E0046
:10086200EF1FAC0670011E4C600A7D027CEFDCFEBD
:04087200DDFC80EC3D
:01087600225F
:07088F007FF47E0102086204
:10080000EF30E02875A0FE12085475A0FB12085EB8
:1008100075A0F712085E75A0EF12085E75A0DF12D2
:10082000085E75A0BF12085E75A07F2275A07F12BA
:10083000085E75A0BF12085E75A0DF12085E75A085
:10084000EF12085E75A0F712085E75A0FB1208543F
:0408500075A0FE226F
:0C0883007F011208007F0212080080F4C0
:00000001FF
