:030000000208D122
:0C08D100787FE4F6D8FD75811302091849
:0E0986000C083F065B4F666D7D077F6F764065
:10095D00EF1FAC0670011E4C600A7D027CEFDCFEC1
:04096D00DDFC80EC41
:010971002263
:10080000C374089BFF7D0A7C00120850C374099BC7
:10081000FF7D017C00120850C3740A9BFF7D0B7C96
:1008200000120850C3740B9BFF7D027C001208501D
:10083000C3740C9BFFE4FDFC120850C3740D9BFFB6
:100840007D027C00120850C3740E9BFF7D037C0068
:10085000EFC394014073EFD39408506DEF14B408C4
:1008600000505490087175F003A4C58325F0C5832A
:100870007302088902088D020891020895020899FE
:100880000208A10208A90208B1D2A4800ED2A48055
:1008900012D2A48016D2A4801AC2A4D2A3D2A2805B
:1008A00016C2A4D2A3C2A2800EC2A4C2A3D2A280A6
:1008B00006C2A4C2A3C2A274082DF8E6F5807F0187
:1008C0007E0012095DE4F580227F017E0012095D41
:0108D0002205
:100972007A64120800E4FB7A64120800DAFB0BBB0B
:040982000FF580F1FC
:1008DD00020972E493A3F8E493A34003F68001F2B6
:1008ED0008DFF48029E493A3F85407240CC8C3331C
:1008FD00C4540F4420C8834004F456800146F6DFEB
:10090D00E4800B0102040810204080900986E47EEB
:10091D00019360BCA3FF543F30E509541FFEE493DF
:10092D00A360010ECF54C025E060A840B8E493A3A6
:10093D00FAE493A3F8E493A3C8C582C8CAC583CAD1
:10094D00F0A3C8C582C8CAC583CADFE9DEE780BE89
:010994000062
:00000001FF
