:1002CF00E4F5087F01FE1202F17F807E2512029E67
:1002DF00120003EFD3940040F78F993099FDC29924
:0202EF0080EE9F
:10029E008E098F0AD29FC29ED29C438920E4F58795
:1002AE00D28ED2AFD2ABAE09AF0AAB07AA06F9F81F
:1002BE007F807E70FDFC12025AEFF404F58DF58BF3
:0102CE00220D
:1002F100EF4E6011E4F50B050BE50BB4EFF9EF1FC1
:0603010070EE1E80EB22ED
:10000300E4F5097590FFC2932097137F14FE120342
:10001300073097FD7F147E001203077509012096B0
:10002300147F147E001203073096FD7F147E0012A6
:1000330003077509052095147F147E00120307300A
:1000430095FD7F147E001203077509092094147F20
:10005300147E001203073094FD7F147E0012030701
:1000630075090D7590FFC2922097147F147E0012BC
:1000730003073097FD7F147E0012030775090220E2
:1000830096147F147E001203073096FD7F147E00C2
:100093001203077509062095147F147E00120307C7
:1000A3003095FD7F147E0012030775090A2094140E
:1000B3007F147E001203073094FD7F147E00120329
:1000C3000775090E7590FFC2912097147F147E0067
:1000D3001203073097FD7F147E001203077509038F
:1000E3002096147F147E001203073096FD7F147E42
:1000F300001203077509072095147F147E0012036D
:10010300073095FD7F147E0012030775090B2094B9
:10011300147F147E001203073094FD7F147E0012B7
:10012300030775090F7590FFC2902097147F147E03
:10013300001203073097FD7F147E00120307750931
:10014300042096147F147E001203073096FD7F145B
:100153007E001203077509082095147F147E001290
:1001630003073095FD7F147E0012030775090C20E9
:1001730094147F147E001203073094FD7F147E00D5
:08018300120307750910AF0912
:01018B002251
:10030700EF1FAC0670011E4C600A7D027CEFDCFE1D
:04031700DDFC80EC9D
:01031B0022BF
:0300000002031CDC
:0C031C00787FE4F6D8FD75810B0202CF5B
:10025A00C2D5E830E70FB2D5E4C39BFBE49AFAE4CF
:10026A0099F9E498F8EC30E717B2D5120290120126
:10027A00C8E4C39BFBE49AFAE499F9E498F880038A
:10028A001201C830D50DE4C39FFFE49EFEE49DFD34
:04029A00E49CFC22C2
:10018C0075F008758200EF2FFFEE33FECD33CDCC2A
:10019C0033CCC58233C5829BED9AEC99E5829840AD
:1001AC000CF582EE9BFEED9AFDEC99FC0FD5F0D68A
:1001BC00E4CEFBE4CDFAE4CCF9A88222B800C1B9B4
:1001CC000059BA002DEC8BF084CFCECDFCE5F0CBF2
:1001DC00F97818EF2FFFEE33FEED33FDEC33FCEB2B
:1001EC0033FB10D703994004EB99FB0FD8E5E4F9E6
:1001FC00FA227818EF2FFFEE33FEED33FDEC33FCD3
:10020C00C933C910D7059BE99A4007EC9BFCE99AC6
:10021C00F90FD8E0E4C9FAE4CCFB2275F010EF2F0B
:10022C00FFEE33FEED33FDCC33CCC833C810D7070B
:10023C009BEC9AE899400AED9BFDEC9AFCE899F846
:0E024C000FD5F0DAE4CDFBE4CCFAE4C8F922D9
:00000001FF
