:0C03A900202020202020202020202000E8
:100165007508017F017E0012035A7F807E251202E9
:10017500CB1203863098FDC298859909E509FB7A6B
:1001850000750E01AD087F0112033D0508E508B4B1
:100195000CE27508017BFF7A0379A97D017F0112C5
:0401A50002FC80D008
:1002CB008E0A8F0BD29FC29ED29C438920E4F58766
:1002DB00D28ED2AFD2ABAE0AAF0BAB07AA06F9F8F0
:1002EB007F807E70FDFC1201A9EFF404F58DF58B78
:0102FB0022E0
:10035A00EF4E6011E4F5240524E524B4EFF9EF1F0C
:06036A0070EE1E80EB2284
:06039A00C2A58F80D2A76E
:0803A0007F027EEFDEFEDFFCB0
:0103A8002232
:0A03C100C2A612039AC2A70203A00D
:10031F00CFCDCFCECCCE1200427C007D0A12004250
:04032F00ED2430FF8A
:0A033300D2A612039AC2A70203A08B
:10037000AE07BE0104ED148006BE0209ED243F4421
:0603800080FF1203C12200
:100386007F381203C17F0C1203C17F061203C17F9F
:04039600010203C19C
:0A03CB00AC03120370AF0402033309
:0602FC008B0A8A0B890C3D
:10030200120370E4FDAB0AAA0BA90C8D827583005F
:0C031200120003FF60061203330D80E9A7
:01031E0022BC
:0C0298007F0AEA24FFFDE434FFFC7E0036
:0802A4008E0F8F108C118D12DA
:1002AC007F017E00E4FBEBC39512E5116480F874CA
:0E02BC008098500AAC0FAD101200300B80E895
:0102CA002211
:04033D008A0C8B0D8E
:10034100120370AA0EEAD39400400D120298AC0C6D
:08035100AD0D12031F1A80ED2F
:010359002281
:1001ED00120370C3EA64809480400B7F2B1203339B
:1001FD008A188B19800E7F2D120333C3E49BF519DA
:10020D00E49AF518AA17EAD39400400D120298AC9F
:09021D0018AD1912031F1A80ED3F
:0102260022B5
:040227008A1C8B1D85
:10022B00120370AA1EEAD3940040297F1012029A7F
:10023B00AC1CAD1DCFCDCFCECCCE120042EF540FA8
:10024B00FEC3940AEE5004243080022437FF1203BD
:04025B00331A80D101
:01025F00227C
:040260008A218B2242
:10026400120370AA23EAD394004028EA24FFFDE491
:1002740034FFFC7F027E001202A4AC21AD22CFCD5C
:10028400CFCECCCE120042EF54012430FF12033300
:030294001A80D2FB
:010297002244
:030000000203B543
:0C03B500787FE4F6D8FD75812402016514
:10000300BB010CE58229F582E5833AF583E02250B2
:1000130006E92582F8E622BBFE06E92582F8E222FC
:0D002300E58229F582E5833AF583E4932216
:10003000EF8DF0A4A8F0CF8CF0A428CE8DF0A42EE4
:02004000FE229E
:10004200BC000BBE0029EF8DF084FFADF022E4CCA2
:10005200F875F008EF2FFFEE33FEEC33FCEE9DEC6B
:10006200984005FCEE9DFE0FD5F0E9E4CEFD22EDB1
:10007200F8F5F0EE8420D21CFEADF075F008EF2FFB
:10008200FFED33FD4007985006D5F0F222C398FDEC
:050092000FD5F0EA2289
:1001A900C2D5E830E70FB2D5E4C39BFBE49AFAE481
:1001B90099F9E498F8EC30E717B2D51201DF12008B
:1001C900D3E4C39BFBE49AFAE499F9E498F8800331
:1001D9001200D330D50DE4C39FFFE49EFEE49DFDDC
:0401E900E49CFC2274
:1000970075F008758200EF2FFFEE33FECD33CDCC20
:1000A70033CCC58233C5829BED9AEC99E5829840A3
:1000B7000CF582EE9BFEED9AFDEC99FC0FD5F0D680
:1000C700E4CEFBE4CDFAE4CCF9A88222B800C1B9AA
:1000D7000059BA002DEC8BF084CFCECDFCE5F0CBE8
:1000E700F97818EF2FFFEE33FEED33FDEC33FCEB21
:1000F70033FB10D703994004EB99FB0FD8E5E4F9DC
:10010700FA227818EF2FFFEE33FEED33FDEC33FCC8
:10011700C933C910D7059BE99A4007EC9BFCE99ABC
:10012700F90FD8E0E4C9FAE4CCFB2275F010EF2F01
:10013700FFEE33FEED33FDCC33CCC833C810D70701
:100147009BEC9AE899400AED9BFDEC9AFCE899F83C
:0E0157000FD5F0DAE4CDFBE4CCFAE4C8F922CF
:00000001FF
