:080DE200000000000000000009
:0F0DD2000A193F065B4F666D7D077F6F0118FFA3
:030D4D00FD7C002A
:100D5000EF14B408005054900D6575F003A4C583DA
:100D600025F0C58373020D7D020D81020D85020DF4
:100D700089020D8D020D95020D9D020DA5D2A48054
:100D80000ED2A48012D2A48016D2A4801AC2A4D2F9
:100D9000A3D2A28016C2A4D2A3C2A2800EC2A4C2B1
:100DA000A3D2A28006C2A4C2A3C2A274192DF8E6DF
:0D0DB000F5807F017E00120DBDE4F580226C
:10080000E4F508F509F50AF50BF50C780D7C00FD0B
:100810007BFF7A0D79E2FE7F05120C347512C878E1
:10082000137C007D007BFF7A0D79E77E007F031249
:100830000C34E4F5161209DBEF14F518C364809448
:1008400080403CE5186480948F5034740D250CF87A
:10085000A618E512D394004021E5186480948040E6
:1008600015D3E51864809489500CE518FD3395E0A4
:10087000FC7F08120D50151280D87512C8050CE5C2
:1008800018B40F14E4F516740D2516F8E4F60516E1
:10089000E516B405F2E4F50CE50C64057097F50C6B
:1008A000E50D75F00AA4AEF07C00250EF509EC3ECE
:1008B000F508E51075F00AA4AEF02511F50BEC3E35
:1008C000F50AE50F640A7034E509250BFBE50835E8
:1008D0000AFA7D64AF03FE120C6C8F157C007D0A52
:1008E000AF03AE02120C6C8F14E509250BFFE5086F
:1008F000350AFE7C007D0A120C6C8D13E50F640B2B
:100900007038C3E509950BFBE508950AFA7C007D74
:1009100064AF03FE120C6C8F157C007D0AAF03AE32
:1009200002120C6C8F14C3E509950BFFE508950ABC
:10093000FE7C007D0A120C6C8D13E50F640C70397F
:10094000AC0AAD0BAE08AF09120C5AAA06AB077C75
:10095000007D64120C6C8F157C007D0AAF03AE0223
:10096000120C6C8F14AC0AAD0BAE08AF09120C5A06
:100970007C007D0A120C6C8D13E50F640D7039AC90
:100980000AAD0BAE08AF09120C6CAA06AB077C00CF
:100990007D64120C6C8F157C007D0AAF03AE0212D1
:1009A0000C6C8F14AC0AAD0BAE08AF09120C6C7C4A
:1009B000007D0A120C6C8D131209DBEF6003020834
:1009C00035E5157F06120D4DE5147F07120D4DE537
:0B09D00013FD7C007F08120D5080DD3D
:100DBD00EF1FAC0670011E4C600A7D027CEFDCFE5D
:040DCD00DDFC80ECDD
:010DD10022FF
:1009DB00E4F5177590FFC2932097137F14FE120D49
:1009EB00BD3097FD7F147E00120DBD75170120964B
:1009FB00147F147E00120DBD3096FD7F147E001205
:100A0B000DBD7517052095147F147E00120DBD309A
:100A1B0095FD7F147E00120DBD7517092094147F70
:100A2B00147E00120DBD3094FD7F147E00120DBD9F
:100A3B0075170D7590FFC2922097147F147E0012CC
:100A4B000DBD3097FD7F147E00120DBD7517022072
:100A5B0096147F147E00120DBD3096FD7F147E0020
:100A6B00120DBD7517062095147F147E00120DBD57
:100A7B003095FD7F147E00120DBD75170A2094145E
:100A8B007F147E00120DBD3094FD7F147E00120D7D
:100A9B00BD75170E7590FFC2912097147F147E00C1
:100AAB00120DBD3097FD7F147E00120DBD7517031F
:100ABB002096147F147E00120DBD3096FD7F147EA0
:100ACB0000120DBD7517072095147F147E00120DB3
:100ADB00BD3095FD7F147E00120DBD75170B209454
:100AEB00147F147E00120DBD3094FD7F147E001216
:100AFB000DBD75170F7590FFC2902097147F147E54
:100B0B0000120DBD3097FD7F147E00120DBD7517C1
:100B1B00042096147F147E00120DBD3096FD7F14B9
:100B2B007E00120DBD7517082095147F147E0012E0
:100B3B000DBD3095FD7F147E00120DBD75170C2079
:100B4B0094147F147E00120DBD3094FD7F147E0033
:080B5B00120DBD751710AF1754
:010B6300226F
:03000000020CC12E
:0C0CC100787FE4F6D8FD758122020D0852
:100B6400E709F608DFFA8046E709F208DFFA803E73
:100B740088828C83E709F0A3DFFA8032E309F60860
:100B8400DFFA8078E309F208DFFA807088828C83C8
:100B9400E309F0A3DFFA806489828A83E0A3F6087C
:100BA400DFFA805889828A83E0A3F208DFFA804C56
:100BB40080D280FA80C680D4806980F2803380102D
:100BC40080A680EA809A80A880DA80E280CA803396
:100BD40089828A83ECFAE493A3C8C582C8CCC5830E
:100BE400CCF0A3C8C582C8CCC583CCDFE9DEE780DE
:100BF4000D89828A83E493A3F608DFF9ECFAA9F05D
:100C0400EDFB2289828A83ECFAE0A3C8C582C8CCB2
:100C1400C583CCF0A3C8C582C8CCC583CCDFEADECB
:100C2400E880DB89828A83E493A3F208DFF980CC2D
:100C340088F0EF60010E4E60C388F0ED2402B40426
:100C44000050B9F582EB2402B4040050AF232345CD
:060C54008223900BB47333
:100C5A00EF8DF0A4A8F0CF8CF0A428CE8DF0A42EAE
:020C6A00FE2268
:100C6C00BC000BBE0029EF8DF084FFADF022E4CC6C
:100C7C00F875F008EF2FFFEE33FEEC33FCEE9DEC35
:100C8C00984005FCEE9DFE0FD5F0E9E4CEFD22ED7B
:100C9C00F8F5F0EE8420D21CFEADF075F008EF2FC5
:100CAC00FFED33FD4007985006D5F0F222C398FDB6
:050CBC000FD5F0EA2253
:100CCD00020800E493A3F8E493A34003F68001F235
:100CDD0008DFF48029E493A3F85407240CC8C33328
:100CED00C4540F4420C8834004F456800146F6DFF7
:100CFD00E4800B0102040810204080900DD2E47EA8
:100D0D00019360BCA3FF543F30E509541FFEE493EB
:100D1D00A360010ECF54C025E060A840B8E493A3B2
:100D2D00FAE493A3F8E493A3C8C582C8CAC583CADD
:100D3D00F0A3C8C582C8CAC583CADFE9DEE780BE95
:010DE1000011
:00000001FF
