:1009D90020200020202D20202D20200020203A201A
:0509E900203A2020006F
:0607FB008F088D098B0A36
:10080100E51B640A702FE51CB40F2AE51DB41E25F3
:10081100E4F50B75A0FF7FF47E011209EEE4F5A06B
:100821007FF47E011209EE75A0FF050BC3E50B6491
:0508310080948540DE0B
:01083600229F
:1006260012050DAB1DAD1CAF1B1207FBE518FB3306
:1006360095E0FA750C027D017F0112098FE519FB21
:100646003395E0FA750C027D047F0112098FE51AD5
:10065600FB3395E0FA750C027D077F0112098FE5E1
:100666001BFB3395E0FA750C027D017F0212098FA0
:10067600E51CFB3395E0FA750C027D047F02120936
:100686008FE51DFB3395E0FA750C027D077F0202AC
:02069600098FCA
:10000E00E524B4020B0521E52175F0068485F02167
:10001E00E524640360030200E874182521F806D372
:10002E00E518648094E34003E4F518D3E519648081
:10003E00948C4003751901E51964016023E5196478
:10004E0003601DE51964056017E51964076011E585
:10005E00196408600BE519640A6005E519B40C0B08
:10006E00D3E51A6480949F404D8048E5196404607E
:10007E0011E5196406600BE51964096005E519B40C
:10008E000B0BD3E51A6480949E402B8026E519B4A1
:10009E000224E51875F004120457AFF0EF700BD37D
:1000AE00E51A6480949D400E8009D3E51A6480940D
:1000BE009C4003751A01D3E51B648094974003E4BA
:1000CE00F51BD3E51C648094BB4003E4F51CD3E51B
:1000DE001D648094BB4003E4F51DE52464046003B5
:1000EE000201E374182521F816C3E5186480948084
:1000FE005003751863C3E519648094815003751914
:10010E000CE51964016023E5196403601DE51964AB
:10011E00056017E51964076011E5196408600BE5C1
:10012E0019640A6005E519B40C17C3E51A648094C6
:10013E00815003751A1FD3E51A6480949F40728014
:10014E006DE51964046011E5196406600BE5196428
:10015E00096005E519B40B17C3E51A648094815044
:10016E0003751A1ED3E51A6480949E4044803FE5C1
:10017E00196402703CE51875F004120457AFF0EFE5
:10018E007017C3E51A648094815003751A1DD3E568
:10019E001A6480949D401A8015C3E51A6480948178
:1001AE005003751A1CD3E51A6480949C4003751A8B
:1001BE0001C3E51B648094805003751B17C3E51CB7
:1001CE00648094805003751C3BC3E51D648094804D
:1001DE005003751D3BE5217014E523B4010F7BFF21
:1001EE007A0979D97D017F0112094E8011E518FB3C
:1001FE003395E0FA750C027D017F0112098FE5211E
:10020E00B40114E523B4010F7BFF7A0979D97D047B
:10021E007F0112094E8011E519FB3395E0FA750C3A
:10022E00027D047F0112098FE521B40214E523B487
:10023E00010F7BFF7A0979D97D077F0112094E8064
:10024E0011E51AFB3395E0FA750C027D077F01125A
:10025E00098FE521B40314E523B4010F7BFF7A095E
:10026E0079D97D017F0212094E8011E51BFB339572
:10027E00E0FA750C027D017F0212098FE521B404AC
:10028E0014E523B4010F7BFF7A0979D97D047F022F
:10029E0012094E8011E51CFB3395E0FA750C027DB8
:1002AE00047F0212098FE521B40512E523B4010D76
:1002BE007BFF7A0979D97D077F0202094EE51DFB86
:0F02CE003395E0FA750C027D077F0212098F222B
:10075500120A031200031209AC7BFF7A0979DC7DCA
:10076500017F0112094E7BFF7A0979E57D017F0240
:1007750012094E1202DD1206988F24E524B40116E3
:10078500E5227007752201F521800BE522B40106EB
:10079500E4F5221202DDE5221460080470D8120681
:0807A5002680D312000E80CE65
:03000B0002087177
:09087100C0E0C0D075D000C00742
:10087A00758A18758CFC0520E5207002051FC39443
:10088A00F4E51F94014012751F00752000E52370DE
:09089A00047F0180027F008F231E
:0708A300D007D0D0D0E032F5
:060A1700C2A58F80D2A7EA
:080A1D007F027EEFDEFEDFFC2C
:010A250022AE
:0A0A2600C2A6120A17C2A7020A1D99
:10097100CFCDCFCECCCE1204B87C007D0A1204B804
:04098100ED2430FF32
:0A098500D2A6120A17C2A7020A1D2B
:1009C300AE07BE0104ED148006BE0209ED243F44C8
:0609D30080FF120A26223B
:100A03007F38120A267F0C120A267F06120A267FD7
:040A130001020A26AC
:0A0A3000AC031209C3AF04020985EC
:06094E008B088A09890AEA
:100954001209C3E4FDAB08AA09A90A8D82758300B4
:0C096400120479FF60061209850D80E97D
:010970002264
:0C091B007F0AEA24FFFDE434FFFC7E00AC
:080927008E0D8F0E8C0F8D1058
:10092F007F017E00E4FBEBC39510E50F6480F87444
:0E093F008098500AAC0DAD0E1204A60B80E895
:01094D002287
:04098F008A0A8B0B3A
:100993001209C3AA0CEAD39400400D12091BAC0A36
:0809A300AD0B1209711A80ED81
:0109AB002229
:100837001209C3C3EA64809480400B7F2B12098599
:100847008A168B17800E7F2D120985C3E49BF51737
:10085700E49AF516AA15EAD39400400D12091BACC9
:0908670016AD171209711A80ED9B
:010870002265
:0408AA008A278B28E6
:1008AE001209C3AA29EAD3940040297F1012091D08
:1008BE00AC27AD28CFCDCFCECCCE1204B8EF540F8F
:1008CE00FEC3940AEE5004243080022437FF12092E
:0408DE00851A80D126
:0108E20022F3
:0408E3008A2C8B2DA3
:1008E7001209C3AA2EEAD394004028EA24FFFDE4A4
:1008F70034FFFC7F027E00120927AC2CAD2DCFCD33
:10090700CFCECCCE1204B8EF54012430FF120985A4
:030917001A80D271
:01091A0022BA
:090A3A000718130B100C3B3706E2
:05000300C2B5C2B622E7
:0506F9002DFDEE3CFCAC
:0606FE008C088D09AB071A
:10070400D2B5E4FD74017E00A805088005C333CE8C
:1007140033CED8F9FFEBF582EF558224FF92B4D2A1
:10072400B6C2B60DBD08DDE4FD74017E00A805085F
:100734008005C333CE33CED8F9FFE5085EFEE50964
:100744005F4E24FF92B4D2B6C2B60DBD08DBC2B56B
:010754002282
:0207AD00AD0796
:1007AF00E4F9430501D2B5FB74017E00A80308806C
:1007BF0005C333CE33CED8F9FFEDF582EF55822442
:1007CF00FF92B4C2B6D2B60BBB08DDE4FBD2B6C201
:1007DF00B630B40D7401A803088002C333D8FC42AD
:0B07EF00010BBB08E8C2B5C2B4AF01AB
:0107FA0022DC
:1002DD00E4FDFC7F8E1206FEE51875F00A12045738
:1002ED00FF3395E0FEEFC4F8540FC868FFEEC45419
:1002FD00F048FEE51875F00A120457ADF0ED339590
:10030D00E0FCEF7F8C1206F9E51975F00A1204571F
:10031D00FF3395E0FEEFC4F8540FC868FFEEC454E8
:10032D00F048FEE51975F00A120457ADF0ED33955E
:10033D00E0FCEF7F881206F9E51A75F00A120457F2
:10034D00FF3395E0FEEFC4F8540FC868FFEEC454B8
:10035D00F048FEE51A75F00A120457ADF0ED33952D
:10036D00E0FCEF2DFDEE3CFC7F861206FEE51B75D5
:10037D00F00A120457FF3395E0FEEFC4F8540FC88E
:10038D0068FFEEC454F048FEE51B75F00A120457E1
:10039D00ADF0ED3395E0FCEF2DFDEE3CFC7F8412CE
:1003AD0006FEE51C75F00A120457FF3395E0FEEFCB
:1003BD00C4F8540FC868FFEEC454F048FEE51C7530
:1003CD00F00A120457ADF0ED3395E0FCEF2DFDEE84
:1003DD003CFC7F821206FEE51D75F00A120457FFE4
:1003ED003395E0FEEFC4F8540FC868FFEEC454F027
:1003FD0048FEE51D75F00A120457ADF0ED3395E09A
:10040D00FCEF2DFDEE3CFC7F801206FEE51E75F027
:10041D000A120457FF3395E0FEEFC4F8540FC86875
:10042D00FFEEC454F048FEE51E75F00A120457ADF8
:10043D00F0ED3395E0FCEF2DFDEE3CFC7F8A1206CE
:0A044D00FE7D807C007F8E0206FE1B
:10050D007F8C1207ADEFC4540F75F00AA4FEEF54A3
:10051D000F2EF5187F881207ADEFC4540F75F00A32
:10052D00A4FEEF540F2EF5197F861207ADEFC454BC
:10053D000F75F00AA4FEEF540F2EF51A7F841207E3
:10054D00ADEFC4540F75F00AA4FEEF540F2EF51B3A
:10055D007F821207ADEFC4540F75F00AA4FEEF545D
:10056D000F2EF51C7F801207ADEFC4540F75F00AE6
:10057D00A4FEEF540F2EF51D7F8A1207ADEFC45464
:0C058D000F75F00AA4FEEF540F2EF51EAF
:01059900223F
:1009EE00EF1FAC0670011E4C600A7D027CEFDCFE30
:0409FE00DDFC80ECB0
:010A020022D1
:10069800E4F50820B1137F14FE1209EE30B1FD7F96
:1006A800147E001209EE75080120B0147F147E0034
:1006B8001209EE30B0FD7F147E001209EE750802B3
:1006C80020B2147F147E001209EE30B2FD7F147E32
:1006D800001209EE75080320B3147F147E00120976
:1006E800EE30B3FD7F147E001209EE750804AF08E2
:0106F80022DF
:1009AC005389F0438901758A18758CFCC28DD28CE1
:0709BC00D2A9D2AFC2B9229B
:0300000002059A5C
:0C059A00787FE4F6D8FD75812E0205E1A3
:10045700C2D530F707B2D563F0FF05F030E70CB22D
:10046700D5F4048463F0FF05F080018430D502F4ED
:0204770004225D
:10047900BB010CE58229F582E5833AF583E0225038
:1004890006E92582F8E622BBFE06E92582F8E22282
:0D049900E58229F582E5833AF583E493229C
:1004A600EF8DF0A4A8F0CF8CF0A428CE8DF0A42E6A
:0204B600FE2224
:1004B800BC000BBE0029EF8DF084FFADF022E4CC28
:1004C800F875F008EF2FFFEE33FEEC33FCEE9DECF1
:1004D800984005FCEE9DFE0FD5F0E9E4CEFD22ED37
:1004E800F8F5F0EE8420D21CFEADF075F008EF2F81
:1004F800FFED33FD4007985006D5F0F222C398FD72
:050508000FD5F0EA220E
:1005A600020755E493A3F8E493A34003F68001F20F
:1005B60008DFF48029E493A3F85407240CC8C33356
:1005C600C4540F4420C8834004F456800146F6DF25
:1005D600E4800B0102040810204080900A3AE47E71
:1005E600019360BCA3FF543F30E509541FFEE4931A
:1005F600A360010ECF54C025E060A840B8E493A3E1
:10060600FAE493A3F8E493A3C8C582C8CAC583CA0B
:10061600F0A3C8C582C8CAC583CADFE9DEE780BEC3
:010A430000B2
:00000001FF
