:100E550077656C636F6D6520746F20637175707451
:100E65002020200077656C636F6D6520746F2063AB
:050E75007175707400AE
:060B84008B318A32893337
:100B8A00120EED8E3B8F3CE4F53DF53EC3E537642E
:100B9A008094805005E4F537F538C3E53A953CE58D
:100BAA003B6480F8E539648098400CE53C24FFF505
:100BBA003AE53B34FFF539D3E538953AE5396480AF
:100BCA00F8E5376480985003020C8885373F8538EA
:100BDA0040C3E540953CE53B6480F8E53F64809876
:100BEA005040C3E53E9410E53D648094805033AB99
:100BFA0031AA32A933854082853F831208F6FFABBA
:100C0A0034AA35A936053EE53EAC3D7002053D14D1
:100C1A00F5828C83EF1209230540E54070B3053F46
:100C2A0080AFE4F53FF540D3E540953AE539648075
:100C3A00F8E53F6480984003020CDFC3E53E941058
:100C4A00E53D648094804003020CDFAB31AA32A9EF
:100C5A0033854082853F831208F6FFAB34AA35A953
:100C6A0036053EE53EAC3D7002053D14F5828C83A7
:100C7A00EF1209230540E54070AD053F80A985378D
:100C8A003F853840D3E540953AE5396480F8E53F39
:100C9A006480985040C3E53E9410E53D648094809A
:100CAA005033AB31AA32A933854082853F8312087B
:100CBA00F6FFAB34AA35A936053EE53EAC3D7002D7
:100CCA00053D14F5828C83EF1209230540E5407037
:100CDA00B3053F80AFAB34AA35A936853E82853D40
:050CEA0083E402092370
:100CEF0078087C007D007BFF7A0E79557E007F149B
:100CFF001208D0781C7C007D007BFF7A0E79697E0C
:100D0F00007F111208D0E4F52DF52E752F10120F5C
:100D1F000275340075350075361CE52DFB7C007DA2
:100D2F0010FF7E001209AC8C378D38EB240FFFE4D7
:100D3F0033FE7C007D101209AC8C398D3A7B007A22
:100D4F00007908120B84052D7B007A00791C7D0138
:100D5F007F01120E7A7FD07E07120ED8E52DD39425
:080D6F001040AEE4F52D80A94F
:060F2600C2A58F80D2A7D6
:080F2C007F027EEFDEFEDFFC18
:010F3400229A
:0A0F4100C2A6120F26C2A7020F2C51
:100E9D00CFCDCFCECCCE1209577C007D0A1209578B
:040EAD00ED2430FF01
:0A0EB100D2A6120F26C2A7020F2CD2
:100F02007F38120F417F0C120F417F06120F417F73
:040F120001020F4188
:100F1600EDBF0103148002243F4480FF120F4122DB
:0A0F4B00AC03120F16AF04020EB142
:060E7A008B318A3289333E
:100E8000120F16E4FDAB31AA32A9338D82758300AF
:0C0E90001208F6FF6006120EB10D80E99A
:010E9C002233
:0C0E22007F0AEA24FFFDE434FFFC7E00A0
:080E2E008E578F588C598D5A24
:100E36007F017E00E4FBEBC3955AE5596480F874A4
:0E0E46008098500AAC57AD581209450B80E851
:010E5400227B
:040EBB008A4A8B4B89
:100EBF00120F16AA4CEAD39400400D120E22AC4A20
:080ECF00AD4B120E9D1A80EDDF
:010ED70022F8
:100D7700120F16C3EA64809480400B7F2B120EB1CA
:100D87008A468B47800E7F2D120EB1C3E49BF54731
:100D9700E49AF546AA45EAD39400400D120E22AC18
:090DA70046AD47120E9D1A80EDC5
:010DB0002220
:040DB1008A4F8B508A
:100DB500120F16AA51EAD3940040297F10120E246F
:100DC500AC4FAD50CFCDCFCECCCE120957EF540F8F
:100DD500FEC3940AEE5004243080022437FF120E1D
:040DE500B11A80D1EE
:010DE90022E7
:040DEA008A548B5547
:100DEE00120F16AA56EAD394004028EA24FFFDE417
:100DFE0034FFFC7F027E00120E2EAC54AD55CFCDCB
:100E0E00CFCECCCE120957EF54012430FF120EB1C3
:030E1E001A80D265
:010E210022AE
:100ED800EF1FAC0670011E4C600A7D027CEFDCFE41
:040EE800DDFC80ECC1
:010EEC0022E3
:1009FB00E4F55B7590FFC2932097137F14FE120EE4
:100A0B00D83097FD7F147E00120ED8755B012096AF
:100A1B00147F147E00120ED83096FD7F147E0012C8
:100A2B000ED8755B052095147F147E00120ED830FE
:100A3B0095FD7F147E00120ED8755B092094147FF0
:100A4B00147E00120ED83094FD7F147E00120ED847
:100A5B00755B0D7590FFC2922097147F147E001268
:100A6B000ED83097FD7F147E00120ED8755B0220D6
:100A7B0096147F147E00120ED83096FD7F147E00E4
:100A8B00120ED8755B062095147F147E00120ED8BB
:100A9B003095FD7F147E00120ED8755B0A209414DE
:100AAB007F147E00120ED83094FD7F147E00120E40
:100ABB00D8755B0E7590FFC2912097147F147E0042
:100ACB00120ED83097FD7F147E00120ED8755B0383
:100ADB002096147F147E00120ED83096FD7F147E64
:100AEB0000120ED8755B072095147F147E00120E32
:100AFB00D83095FD7F147E00120ED8755B0B2094B9
:100B0B00147F147E00120ED83094FD7F147E0012D9
:100B1B000ED8755B0F7590FFC2902097147F147ED3
:100B2B0000120ED83097FD7F147E00120ED8755B25
:100B3B00042096147F147E00120ED83096FD7F147D
:100B4B007E00120ED8755B082095147F147E001260
:100B5B000ED83095FD7F147E00120ED8755B0C20DD
:100B6B0094147F147E00120ED83094FD7F147E00F7
:080B7B00120ED8755B10AF5B90
:010B8300224F
:03000000020F35B7
:0C0F3500787FE4F6D8FD75815B020CEFBC
:10080000E709F608DFFA8046E709F208DFFA803EDA
:1008100088828C83E709F0A3DFFA8032E309F608C7
:10082000DFFA8078E309F208DFFA807088828C832F
:10083000E309F0A3DFFA806489828A83E0A3F608E3
:10084000DFFA805889828A83E0A3F208DFFA804CBD
:1008500080D280FA80C680D4806980F28033801094
:1008600080A680EA809A80A880DA80E280CA8033FD
:1008700089828A83ECFAE493A3C8C582C8CCC58375
:10088000CCF0A3C8C582C8CCC583CCDFE9DEE78045
:100890000D89828A83E493A3F608DFF9ECFAA9F0C4
:1008A000EDFB2289828A83ECFAE0A3C8C582C8CC1A
:1008B000C583CCF0A3C8C582C8CCC583CCDFEADE33
:1008C000E880DB89828A83E493A3F208DFF980CC95
:1008D00088F0EF60010E4E60C388F0ED2402B4048E
:1008E0000050B9F582EB2402B4040050AF23234535
:0608F00082239008507302
:1008F600BB010CE58229F582E5833AF583E02250B7
:1009060006E92582F8E622BBFE06E92582F8E22200
:0D091600E58229F582E5833AF583E493221A
:10092300F8BB010DE58229F582E5833AF583E8F00A
:10093300225006E92582C8F622BBFE05E92582C8B6
:02094300F2229E
:10094500EF8DF0A4A8F0CF8CF0A428CE8DF0A42EC6
:02095500FE2280
:10095700BC000BBE0029EF8DF084FFADF022E4CC84
:10096700F875F008EF2FFFEE33FEEC33FCEE9DEC4D
:10097700984005FCEE9DFE0FD5F0E9E4CEFD22ED93
:10098700F8F5F0EE8420D21CFEADF075F008EF2FDD
:10099700FFED33FD4007985006D5F0F222C398FDCE
:0509A7000FD5F0EA226B
:1009AC00C2D5EC30E709B2D5E4C39DFDE49CFCEE66
:1009BC0030E715B2D5E4C39FFFE49EFE120957C37E
:1009CC00E49DFDE49CFC800312095730D507C3E479
:0609DC009FFFE49EFE22D5
:100EED00E4FFFE1209E2600C0FEF70010E09E970CC
:050EFD00F20A80EF2263
:1009E200BB010689828A83E0225002E722BBFE0213
:0909F200E32289828A83E4932246
:00000001FF
