:07000300D29512064580FEB4
:06065700C2A58F80D2A7AE
:08065D007F027EEFDEFEDFFCF0
:010665002272
:0A066600C2A6120657C2A702065DE5
:10059C00CFCDCFCECCCE1201E97C007D0A1201E981
:0405AC00ED2430FF0B
:0A05B000D2A6120657C2A702065D8C
:1005F000AE07BE0104ED148006BE0209ED243F449F
:0606000080FF12066622D5
:100631007F381206667F0C1206667F061206667FF9
:040641000102066646
:0A067000AC031205F0AF040205B060
:060579008B2F8A3089314E
:10057F001205F0E4FDAB2FAA30A9318D82758300EF
:0C058F001201AAFF60061205B00D80E901
:01059B00223D
:0C0546007F0AEA24FFFDE434FFFC7E0085
:080552008E2B8F2C8C2D8D2EB9
:10055A007F017E00E4FBEBC3952EE52D6480F874E1
:0E056A008098500AAC2BAD2C1201D70B80E804
:010578002260
:0405BA008A1E8B1FEB
:1005BE001205F0AA20EAD39400400D120546AC1E97
:0805CE00AD1F12059C1A80ED1F
:0105D6002202
:100462001205F0C3EA64809480400B7F2B1205B022
:100472008A0D8B0E800E7F2D1205B0C3E49BF50E04
:10048200E49AF50DAA0CEAD39400400D120546AC8D
:090492000DAD0E12059C1A80ED5F
:01049B00223E
:04049C008A238B2400
:1004A0001205F0AA25EAD3940040297F10120548CE
:1004B000AC23AD24CFCDCFCECCCE1201E9EF540F7B
:1004C000FEC3940AEE5004243080022437FF120544
:0404D000B01A80D10D
:0104D4002205
:04050E008A288B2983
:100512001205F0AA2AEAD394004028EA24FFFDE457
:1005220034FFFC7F027E00120552AC28AD29CFCDEC
:10053200CFCECCCE1201E9EF54012430FF1205B028
:030542001A80D24A
:010545002293
:09060600070F130B100C3B370623
:05067A00C2B5C2B6226A
:0503B8002DFDEE3CFCF0
:0603BD008C328D33AB070A
:1003C300D2B5E4FD74017E00A805088005C333CED1
:1003D30033CED8F9FFEBF582EF558224FF92B4D2E6
:1003E300B6C2B60DBD08DDE4FD74017E00A80508A4
:1003F3008005C333CE33CED8F9FFE5325EFEE53355
:100403005F4E24FF92B4D2B6C2B60DBD08DBC2B5AF
:0104130022C6
:02041400AD0732
:10041600E4F9430501D2B5FB74017E00A803088008
:1004260005C333CE33CED8F9FFEDF582EF558224DE
:10043600FF92B4C2B6D2B60BBB08DDE4FBD2B6C29D
:10044600B630B40D7401A803088002C333D8FC4249
:0B045600010BBB08E8C2B5C2B4AF0147
:010461002278
:10000E00E4FDFC7F8E1203BDE50F75F00A12018828
:10001E00FF3395E0FEEFC4F8540FC868FFEEC454EA
:10002E00F048FEE50F75F00A120188ADF0ED33953C
:10003E00E0FCEF7F8C1203B8E51075F00A12018810
:10004E00FF3395E0FEEFC4F8540FC868FFEEC454BA
:10005E00F048FEE51075F00A120188ADF0ED33950B
:10006E00E0FCEF7F881203B8E51175F00A120188E3
:10007E00FF3395E0FEEFC4F8540FC868FFEEC4548A
:10008E00F048FEE51175F00A120188ADF0ED3395DA
:10009E00E0FCEF2DFDEE3CFC7F861203BDE51275F4
:1000AE00F00A120188FF3395E0FEEFC4F8540FC832
:1000BE0068FFEEC454F048FEE51275F00A1201888E
:1000CE00ADF0ED3395E0FCEF2DFDEE3CFC7F8412A0
:1000DE0003BDE51375F00A120188FF3395E0FEEFBC
:1000EE00C4F8540FC868FFEEC454F048FEE513750B
:1000FE00F00A120188ADF0ED3395E0FCEF2DFDEE28
:10010E003CFC7F821203BDE51475F00A120188FFD4
:10011E003395E0FEEFC4F8540FC868FFEEC454F0F8
:10012E0048FEE51475F00A120188ADF0ED3395E046
:10013E00FCEF2DFDEE3CFC7F801203BDE51575F046
:10014E000A120188FF3395E0FEEFC4F8540FC86819
:10015E00FFEEC454F048FEE51575F00A120188ADA5
:10016E00F0ED3395E0FCEF2DFDEE3CFC7F8A1203A3
:0A017E00BD7D807C007F8E0203BD72
:10023E007F8C120414EFC4540F75F00AA4FEEF5411
:10024E000F2EF50F7F88120414EFC4540F75F00AA9
:10025E00A4FEEF540F2EF5107F86120414EFC45433
:10026E000F75F00AA4FEEF540F2EF5117F841204C1
:10027E0014EFC4540F75F00AA4FEEF540F2EF512AE
:10028E007F82120414EFC4540F75F00AA4FEEF54CB
:10029E000F2EF5137F80120414EFC4540F75F00A5D
:1002AE00A4FEEF540F2EF5147F8A120414EFC454DB
:0C02BE000F75F00AA4FEEF540F2EF5158A
:0102CA002211
:10061C00EF1FAC0670011E4C600A7D027CEFDCFE05
:04062C00DDFC80EC85
:0106300022A7
:1005D700D3EF9400EE9400400F7D267C82DCFEDD95
:0805E700FAEF1F70EB1E80E823
:0105EF0022E9
:10035700E4F53420B1137F14FE12061C30B1FD7F83
:10036700147E0012061C75340120B0147F147E0021
:1003770012061C30B0FD7F147E0012061C75340275
:1003870020B2147F147E0012061C30B2FD7F147E4B
:100397000012061C75340320B3147F147E00120666
:1003A7001C30B3FD7F147E0012061C753404AF3475
:0103B7002223
:0C060F000216000002180000021A000091
:10064500758902758A50758C50C28DD2A9D2AFD2E8
:020655008C22F5
:03000B000204D517
:0404D500C0E0C0D0F3
:1004D900E5194518702A051BE51B7002051A640504
:1004E900451A7006B295F51AF51B0517E51770023E
:1004F9000516B4900BE516B41406751800751901A4
:05050900D0D0D0E0326B
:030000000202CB2E
:0C02CB00787FE4F6D8FD75813402031240
:10018800C2D530F707B2D563F0FF05F030E70CB2FF
:10019800D5F4048463F0FF05F080018430D502F4BF
:0201A80004222F
:1001AA00BB010CE58229F582E5833AF583E022500A
:1001BA0006E92582F8E622BBFE06E92582F8E22254
:0D01CA00E58229F582E5833AF583E493226E
:1001D700EF8DF0A4A8F0CF8CF0A428CE8DF0A42E3C
:0201E700FE22F6
:1001E900BC000BBE0029EF8DF084FFADF022E4CCFA
:1001F900F875F008EF2FFFEE33FEEC33FCEE9DECC3
:10020900984005FCEE9DFE0FD5F0E9E4CEFD22ED08
:10021900F8F5F0EE8420D21CFEADF075F008EF2F52
:10022900FFED33FD4007985006D5F0F222C398FD43
:050239000FD5F0EA22E0
:1002D700020003E493A3F8E493A34003F68001F23A
:1002E70008DFF48029E493A3F85407240CC8C33328
:1002F700C4540F4420C8834004F456800146F6DFF7
:10030700E4800B0102040810204080900606E47E7A
:10031700019360BCA3FF543F30E509541FFEE493EB
:10032700A360010ECF54C025E060A840B8E493A3B2
:10033700FAE493A3F8E493A3C8C582C8CAC583CADD
:10034700F0A3C8C582C8CAC583CADFE9DEE780BE95
:01061B0000DE
:00000001FF
