:100003000908FEFDFBF7EDDFBF7F000117000218B3
:0C001300000005120000000000011A00AF
:1001F40075A0FF7FC87E001201DFE4F5A07FC8FE72
:030204000201DF15
:10019F00E5194518601ED2957F017E001201DFC25E
:1001AF00957F017E001201DF1201C4AF997518000F
:0501BF008F1980DC2215
:10015A001201C475A0FFE515B401FBE514B423F63A
:10016A00E513B445F1E512B467ECE4F5111201F4B4
:10017A000511C3E5116480948A40F2E4F511C3E5E0
:10018A00116480948450CF74122511F8E4F675A096
:05019A00FF051180E9E2
:03002300020026B2
:10002600C0E0C0F0C083C082C0D075D000C000C0A0
:1000360001C002C003C004C005C006C00730986DE9
:10004600851415851314851213859912AF997518A1
:10005600008F19E599B401038508A0E599B4020358
:100066008509A0E599B40303850AA0E599B40403BC
:10007600850BA0E599B40503850CA0E599B40603A4
:10008600850DA0E599B40703850EA0E599B4110383
:1000960012019F75110074122511F8E6FF1202076E
:1000A6000511C3E5116480948440EBC298D007D053
:1000B60006D005D004D003D002D001D000D0D0D0D5
:0800C60082D083D0F0D0E032BB
:1001DF00EF1FAC0670011E4C600A7D027CEFDCFE47
:0401EF00DDFC80ECC7
:0101F30022E9
:1001C40075985043878053890F438920758BF37545
:0B01D4008DF3C2ABD28ED2AFD2AC22B2
:080207008F993099FDC2992284
:030000000200CE2D
:0C00CE00787FE4F6D8FD75811A02011558
:1000DA0002015AE493A3F8E493A34003F68001F2E1
:1000EA0008DFF48029E493A3F85407240CC8C33327
:1000FA00C4540F4420C8834004F456800146F6DFF6
:10010A00E4800B0102040810204080900003E47E82
:10011A00019360BCA3FF543F30E509541FFEE493EA
:10012A00A360010ECF54C025E060A840B8E493A3B1
:10013A00FAE493A3F8E493A3C8C582C8CAC583CADC
:10014A00F0A3C8C582C8CAC583CADFE9DEE780BE94
:01001F0000E0
:00000001FF
