:100424005772697465204F4B002020202020202023
:0B043400200052656164204F4B200047
:1000030012046A750C0AAB19AA187D017F01120448
:10001300071201EC8F1A75184E7519FE751B27759B
:100023001C57E51A640360030200B2AE18AF197CD3
:1000330001FD1201B6E4FF1203847F057E00120462
:1000430055AE18AF197C017D001201B6AC06AD07A1
:100053007F011203847F057E00120455AE1BAF1C83
:100063007C017D001201B67F021203847F057E00AE
:10007300120455AE1BAF1C7C017D001201B6AC0609
:10008300AD077F031203847F057E001204557BFFB7
:100093007A0479247D017F021203A87FE87E03128C
:1000A30004557BFF7A04792D7D017F021203A8E5B5
:1000B3001A64046003020014FF12032B7518008FE7
:1000C300197F0112032BEFFEEE42187F0212032B5E
:1000D300751B008F1C7F0312032BEFFEEE421B7573
:1000E3000C05AB19AA187D017F01120407750C05D5
:1000F300AB1CAA1B7D067F011204077BFF7A0479E0
:10010300367D017F021203A87FE87E031204557B2C
:0F011300FF7A04792D7D017F021203A8020014E8
:10045500EF1FAC0670011E4C600A7D027CEFDCFECE
:04046500DDFC80EC4E
:010469002270
:06047E00C2A58F80D2A789
:080484007F027EEFDEFEDFFCCB
:01048C00224D
:0A04A500C2A612047EC2A70204845E
:1003CB00CFCDCFCECCCE1201617C007D0A12016164
:0403DB00ED2430FFDE
:0A03DF00D2A612047EC2A702048415
:10043F00AE07BE0104ED148006BE0209ED243F4451
:06044F0080FF1204A5224B
:10046A007F381204A57F0C1204A57F061204A57F0B
:04047A00010204A5D2
:0A04AF00AC0312043FAF040203DFA8
:0603A8008B088A09890A96
:1003AE0012043FE4FDAB08AA09A90A8D82758300E9
:0C03BE00120122FF60061203DF0D80E92F
:0103CA002210
:0C02F8007F0AEA24FFFDE434FFFC7E00D6
:080304008E0D8F0E8C0F8D1081
:10030C007F017E00E4FBEBC39510E50F6480F8746D
:0E031C008098500AAC0DAD0E12014F0B80E818
:01032A0022B0
:040407008A0A8B0BC7
:10040B0012043FAA0CEAD39400400D1202F8AC0A76
:08041B00AD0B1203CB1A80EDBA
:0104230022B6
:10024D0012043FC3EA64809480400B7F2B1203DFBE
:10025D008A168B17800E7F2D1203DFC3E49BF517D3
:10026D00E49AF516AA15EAD39400400D1202F8ACE3
:09027D0016AD171203CB1A80ED37
:010286002255
:040287008A1F8B201F
:10028B0012043FAA21EAD3940040297F101202FAEC
:10029B00AC1FAD20CFCDCFCECCCE120161EF540F22
:1002AB00FEC3940AEE5004243080022437FF12035D
:0402BB00DF1A80D1F5
:0102BF00221C
:0402C0008A248B25DC
:1002C40012043FAA26EAD394004028EA24FFFDE45E
:1002D40034FFFC7F027E00120304AC24AD25CFCD95
:1002E400CFCECCCE120161EF54012430FF1203DFD4
:0302F4001A80D29B
:0102F70022E4
:1001EC00E4F50820B1137F14FE12045530B1FD7FE5
:1001FC00147E0012045575080120B0147F147E0083
:10020C0012045530B0FD7F147E001204557508029F
:10021C0020B2147F147E0012045530B2FD7F147E80
:10022C000012045575080320B3147F147E001204C9
:10023C005530B3FD7F147E00120455750804AF08C9
:01024C00228F
:100384008F088C098D0A1204C37FA012035B120428
:100394008DAF0812035B12048DAF0A12035B1204C3
:0403A4008D0204CCF6
:02032B008F0839
:10032D001204C37FA012035B12048DAF0812035B8E
:10033D0012048D1204C37FA112035B12048D1203EC
:0D034D00E98F097F011204B91204CCAF0939
:01035A002280
:0904C300D2A0D2A1C2A0C2A12264
:0704CC00C2A0D2A1D2A022C0
:02035B00AD07EC
:10035D00E4FB74807E00A803088006CEA2E713CECE
:10036D0013D8F8FFEDF582EF558224FF92A0D2A1AC
:06037D00C2A10BBB08DC6D
:010383002257
:1003E900E4FFD2A0FED2A130A00D7480A806088037
:0D03F90002C313D8FC4207C2A10EBE08E8E3
:0104060022D3
:0A04B900EF24FF92A0D2A1C2A122FD
:0B048D00D2A0D2A1A2A0E433FFC2A1C4
:010498002241
:030000000204995E
:0C049900787FE4F6D8FD75812602000390
:10012200BB010CE58229F582E5833AF583E0225092
:1001320006E92582F8E622BBFE06E92582F8E222DC
:0D014200E58229F582E5833AF583E49322F6
:10014F00EF8DF0A4A8F0CF8CF0A428CE8DF0A42EC4
:02015F00FE227E
:10016100BC000BBE0029EF8DF084FFADF022E4CC82
:10017100F875F008EF2FFFEE33FEEC33FCEE9DEC4B
:10018100984005FCEE9DFE0FD5F0E9E4CEFD22ED91
:10019100F8F5F0EE8420D21CFEADF075F008EF2FDB
:1001A100FFED33FD4007985006D5F0F222C398FDCC
:0501B1000FD5F0EA2269
:1001B600C2D5EC30E709B2D5E4C39DFDE49CFCEE64
:1001C60030E715B2D5E4C39FFFE49EFE120161C37A
:1001D600E49DFDE49CFC800312016130D507C3E475
:0601E6009FFFE49EFE22D3
:00000001FF
