:0C05C00001083201130C010D00010B00BA
:030013000205FDE6
:1005FD00C0E0E50D7002F50BE50D6006750B01759C
:05060D000D00D0E032F9
:04059A008E2A8F2BEB
:10059E00750D01D2A07F017E00120612C2A07F014E
:1005AE007E00120612E50B60EA752C0085082DC23E
:0105BE00A09C
:0105BF002219
:10001600E4F5337590FFC2932097137F14FE120602
:10002600123097FD7F147E0012061275330120965A
:10003600147F147E001206123096FD7F147E001285
:1000460006127533052095147F147E0012061230B1
:1000560095FD7F147E001206127533092094147FD5
:10006600147E001206123094FD7F147E00120612D2
:1000760075330D7590FFC2922097147F147E00127F
:1000860006123097FD7F147E001206127533022089
:1000960096147F147E001206123096FD7F147E00A1
:1000A6001206127533062095147F147E001206126E
:1000B6003095FD7F147E0012061275330A209414C3
:1000C6007F147E001206123094FD7F147E00120605
:1000D6001275330E7590FFC2912097147F147E001F
:1000E6001206123097FD7F147E0012061275330336
:1000F6002096147F147E001206123096FD7F147E21
:10010600001206127533072095147F147E0012061E
:10011600123095FD7F147E0012061275330B209463
:10012600147F147E001206123094FD7F147E001296
:10013600061275330F7590FFC2902097147F147EB8
:10014600001206123097FD7F147E001206127533D8
:10015600042096147F147E001206123096FD7F143A
:100166007E001206127533082095147F147E001245
:1001760006123095FD7F147E0012061275330C2090
:1001860094147F147E001206123094FD7F147E00B4
:08019600120612753310AF339D
:01019E00223E
:10019F0075300220B20375300220B303753003208F
:1001AF00B003753001E51375F00A84FD7C007F0103
:1001BF001204CCE51375F00A84E5F0FD7C007F0294
:1001CF001204CC7D0A7C007F031204CCE51475F079
:1001DF000A84FD7C007F041204CCE51475F00A84B8
:1001EF00E5F0FD7C007F051204CCE530FD7C007F3F
:1001FF00061204CCE50A75F00A84FD7C007F071215
:10020F0004CCE50A75F00A84E5F0FD7C007F081246
:10021F0004CC20B1030202BB1200168F31E53170FE
:10022F00030201A2C3940A4005E531B4101EE53064
:10023F00B40219E531B4100AE51475F00AA4F514E7
:10024F00800AE51475F00AA42531F514E531C3943D
:10025F000A4005E531B4101EE530B40319E531B499
:10026F00100AE51375F00AA4F513800AE51375F06B
:10027F000AA42531F513E531C3940A4009E5316429
:10028F001060030201A2E530640160030201A2E5E0
:10029F0031B4100BE50A75F00AA4F50A0201A2E5C4
:0C02AF000A75F00AA42531F50A0201A22C
:0102BB002220
:1003D800D2AFD28AD2AAD2BA750F0075100112050F
:1003E800E6C2A0E50C75F00A84FD7C007F011204CA
:1003F800CCE50C75F00A84E5F0FD7C007F02120460
:10040800CC7D0A7C007F031204CCE50E75F00A84CB
:10041800FD7C007F041204CCE50E75F00A84E5F03B
:10042800FD7C007F051204CC7D0A7C007F06120447
:10043800CCE50875F00A84FD7C007F071204CCE542
:100448000875F00A84E5F0FD7C007F081204CC20D2
:07045800B19112019F808C9D
:03000B000202BC32
:1002BC00C0E0C0F0C083C082C0D075D000C000C008
:1002CC0001C002C003C004C005C006C007758AA0E7
:1002DC00758C15E51264C8451170420508F511F5C9
:1002EC0012E508B43C17050EE50EB43C0D050C7573
:1002FC000E00E50CB41803750C00750800E50EB57E
:10030C001412E513B50C0DE510450F60077FF47E54
:10031C000112059A20B006750F007510000512E544
:10032C001270020511D007D006D005D004D003D02E
:10033C0002D001D000D0D0D082D083D0F0D0E03227
:10061200EF1FAC0670011E4C600A7D027CEFDCFE0F
:04062200DDFC80EC8F
:0106260022B1
:10053900E4F53420B1137F14FE12061230B1FD7FA9
:10054900147E0012061275340120B0147F147E0047
:1005590012061230B0FD7F147E00120612753402A5
:1005690020B2147F147E0012061230B2FD7F147E71
:100579000012061275340320B3147F147E0012068C
:100589001230B3FD7F147E00120612753404AF34A5
:01059900223F
:0C05CC000A203F065B4F666D7D077F6FC5
:10045F00EF14B40800505490047475F003A4C583CE
:10046F0025F0C5837302048C0204900204940204E5
:10047F009802049C0204A40204AC0204B4D2A48027
:10048F000ED2A48012D2A48016D2A4801AC2A4D2F3
:10049F00A3D2A28016C2A4D2A3C2A2800EC2A4C2AB
:1004AF00A3D2A28006C2A4C2A3C2A274202DF8E6D2
:0D04BF00F5807F017E00120612E4F5802218
:1005E6005389804389F0758AA0758C15C28DD28C8B
:0705F600D2A9D2AFC2B92265
:0D05D8000B153F065B4F666D7D077F6F09B9
:1004CC00EF14B4080050549004E175F003A4C583F4
:1004DC0025F0C583730204F90204FD02050102052F
:1004EC0005020509020511020519020521D2A48095
:1004FC000ED2A48012D2A48016D2A4801AC2A4D286
:10050C00A3D2A28016C2A4D2A3C2A2800EC2A4C23D
:10051C00A3D2A28006C2A4C2A3C2A274152DF8E66F
:0D052C00F5807F017E00120612E4F58022AA
:0300000002034CAC
:0C034C00787FE4F6D8FD7581340203933D
:100358000203D8E493A3F8E493A34003F68001F2E0
:1003680008DFF48029E493A3F85407240CC8C333A6
:10037800C4540F4420C8834004F456800146F6DF75
:10038800E4800B01020408102040809005C0E47E40
:10039800019360BCA3FF543F30E509541FFEE4936A
:1003A800A360010ECF54C025E060A840B8E493A331
:1003B800FAE493A3F8E493A3C8C582C8CAC583CA5C
:1003C800F0A3C8C582C8CAC583CADFE9DEE780BE14
:0105E5000015
:00000001FF
