:0D09E50054656D70657261747572653A003D
:0E09C70002100000010864010900020AFFFF8F
:1005EB001209F27FE87E0312098C1209A17BFF7AB4
:1005FB000979E57D017F011208B0120462EF24FF37
:10060B00F511E434FFF510C3648094804026E509AE
:10061B0094025020E509240EFD751601AB11AA10AA
:10062B007F011208F1740A2509F8A61174FFF51061
:10063B00F5110509C3E50A648094804012E50B644B
:10064B00809480400AE50A75F00AA4250BF5081280
:10065B0009F21208848F0F8E0E8D0D8C0CE4FFFEA9
:10066B00FDFCAB0FAA0EA90DA80C1201A9501E7B05
:10067B002D7D017F02120A09AF0FAE0EAD0DAC0C32
:10068B001202228F0F8E0E8D0D8C0C80097B2B7D11
:10069B00017F02120A09AF0FAE0EAD0DAC0C1202A8
:1006AB0071AB07AA067516037D027F021208F17B58
:1006BB002E7D057F02120A09E4FFFE7DC87C42AB4A
:1006CB000FAA0EA90DA80C120003120271E47B6491
:1006DB00FAF9F81203C27516027D067F021208F1B1
:1006EB00AC08E412023DAB0FAA0EA90DA80C120127
:1006FB00A96002500302060575A0FF7F2C7E011234
:0F070B00098CE4F5A07F2C7E0112098C020605F3
:10098C00EF1FAC0670011E4C600A7D027CEFDCFE92
:04099C00DDFC80EC12
:0109A0002234
:0609D600C2A58F80D2A72C
:0809DC007F027EEFDEFEDFFC6E
:0109E40022F0
:0A09FF00C2A61209D6C2A70209DC45
:1008D300CFCDCFCECCCE1203317C007D0A120331B3
:0408E300ED2430FFD1
:0A08E700D2A61209D6C2A70209DC4E
:10097600AE07BE0104ED148006BE0209ED243F4415
:0609860080FF1209FF22B0
:1009A1007F381209FF7F0C1209FF7F061209FF7FB2
:0409B100010209FF37
:0A0A0900AC03120976AF040208E7FF
:0608B0008B128A1389146B
:1008B600120976E4FDAB12AA13A9148D8275830082
:0C08C6001202F2FF60061208E70D80E944
:0108D2002203
:0C0851007F0AEA24FFFDE434FFFC7E0077
:08085D008E178F188C198D1AFB
:100865007F017E00E4FBEBC3951AE5196480F874FB
:0E0875008098500AAC17AD1812031F0B80E8D4
:010883002252
:0408F1008A148B15C5
:1008F500120976AA16EAD39400400D120851AC14D9
:08090500AD151208D31A80EDB4
:01090D0022C7
:1007A600120976C3EA64809480400B7F2B1208E717
:1007B6008A208B21800E7F2D1208E7C3E49BF5214A
:1007C600E49AF520AA1FEAD39400400D120851AC12
:0907D60020AD211208D31A80EDB8
:0107DF0022F7
:0407E0008A248B25B7
:1007E400120976AA26EAD3940040297F10120853EE
:1007F400AC24AD25CFCDCFCECCCE120331EF540FE8
:10080400FEC3940AEE5004243080022437FF1208F9
:04081400E71A80D18E
:0108180022BD
:040819008A298B2A73
:10081D00120976AA2BEAD394004028EA24FFFDE4BE
:10082D0034FFFC7F027E0012085DAC29AD2ACFCDCE
:10083D00CFCECCCE120331EF54012430FF1208E796
:03084D001A80D23C
:010850002285
:0D09F20012092B7FCC1209457F44020945F4
:1008840012092B7FCC1209457FBE12094512090EAD
:100894008F1212090EEFFEE512FFFDAC06EC1202F8
:0B08A40038E4FBFA7980784112010C67
:0108AF002226
:10092B00D2B7C2B77FF7DFFED2B77F20DFFEA2B709
:09093B00E433FE7FF7DFFEAF0696
:010944002290
:1009B500C2B77E04DEFEEF24FF92B77E18DEFED2BC
:0109C500B77A
:0109C600220E
:10095E00C2B77F02DFFED2B77F02DFFEA2B7E4335B
:07096E00FE7F18DFFEAF065B
:01097500225F
:02094500AD07FC
:10094700E4FC7401A804088002C333D8FC5DFF12DD
:0609570009B50CBC08EC20
:01095D002277
:10090E00E4FDFC12095EEF600D7401A8040880027C
:0C091E00C333D8FC42050CBC08E9AF054F
:01092A0022AA
:10046200E4F5127590FFC2932097137F14FE1209D0
:100472008C3097FD7F147E0012098C751201209634
:10048200147F147E0012098C3096FD7F147E0012B8
:10049200098C7512052095147F147E0012098C3088
:1004A20095FD7F147E0012098C7512092094147F29
:1004B200147E0012098C3094FD7F147E0012098C88
:1004C20075120D7590FFC2922097147F147E001250
:1004D200098C3097FD7F147E0012098C7512022060
:1004E20096147F147E0012098C3096FD7F147E00D4
:1004F20012098C7512062095147F147E0012098C45
:100502003095FD7F147E0012098C75120A20941416
:100512007F147E0012098C3094FD7F147E00120934
:100522008C75120E7590FFC2912097147F147E0075
:1005320012098C3097FD7F147E0012098C7512030C
:100542002096147F147E0012098C3096FD7F147E53
:100552000012098C7512072095147F147E0012096F
:100562008C3095FD7F147E0012098C75120B20943D
:10057200147F147E0012098C3094FD7F147E0012C9
:10058200098C75120F7590FFC2902097147F147E0C
:100592000012098C3097FD7F147E0012098C7512AF
:1005A200042096147F147E0012098C3096FD7F146D
:1005B2007E0012098C7512082095147F147E001299
:1005C200098C3095FD7F147E0012098C75120C2067
:1005D20094147F147E0012098C3094FD7F147E00E7
:0805E20012098C751210AF1212
:0105EA0022EE
:10000300EC4D6011E8497017ED33EC3304600DE4F7
:10001300FCFFFEFD22E933E8330470F80202DD122F
:1000230002A858046009E4CC248150062850090230
:1000330002E72840030202E4C0E0EB4A7044B980BF
:1000430006D0E0FB0202D3EF4E701CBD8008EBFF2D
:10005300EAFEE9FD80EBE98DF0A4FEE5F00200EC99
:10006300E9CDF9EAFEEBFFEF89F0A4FCE5F0CE89D8
:10007300F0A42EFFE435F0CD89F0A42DFEE435F095
:100083008067EF4E7005BD80D780C3EF8BF0A4ACC3
:10009300F0EE8BF0A42CFCE435F0F8EF8AF0A42CFE
:1000A300E5F038FCE433CB8DF0A42CFCE5F03BF811
:1000B300EE8AF0A42CFCE5F038F8E433CF89F0A401
:1000C3002CFCE5F038CF3400CE89F0A42FFFE5F007
:1000D3003EFEE433C98DF0A42EFEE5F039CD8AF05F
:1000E300A42FFFE5F03EFEE43DFD33D0E0FB5007D7
:1000F3000BBB000F0202E7EC2CFCEF33FFEE33FEE9
:06010300ED33FD0202BF16
:100109000202E7EC5D046005E8590470030202DDB0
:100119001202A8580460F6EC4860F2EC7004FDFE87
:10012900FF22C860DB2481C85009C39860025006C9
:100139000202E49850CAF582E9294B4A7005AB825C
:100149000202D375F0007C1A7880C3EF9BEE9AED1A
:1001590099400DC3EF9BFFEE9AFEED99FDE842F041
:10016900DC23ACF0D0E0FFD0E0FED0E0FDAB822094
:10017900E7101BEB60BAEC2CFCEF33FFEE33FEED1E
:1001890033FD0202BFE803F830E705C0F075F0005F
:10019900EF2FFFEE33FEED33FD40B830E7C280AA02
:1001A90074F8CC6480CCC86480C8F58204604FC3FD
:1001B900EB9FF5F0EA9E42F0E99D42F0E89C45F09C
:1001C900603C501DE5825FFFE582D313CB5BCBF426
:1001D9002B5582FB50280ABA002409B9002008804F
:1001E9001DE5825BFBE582D313CF5FCFF4C3132FE9
:1001F9005582FF50090EBE00050DBD00010CC3EB71
:100209009FF5F0EA9E42F0E99D42F0E89C45F060D6
:0902190007CC4820E701B3EC22F8
:10022200ED33EC33600A047003BD8004ECB2E7FCEA
:0102320022A9
:1002330075F020800E75F010800575F0087D007E46
:10024300007F003392D530D503120454EC334010B1
:10025300EF33FFEE33FEED33FDEC33FCD5F0ED224F
:0E026300E5F0247EA2D513CC92E7CDCEFF228B
:10027100EDD2E7CD33EC3392D524814006E4FFFE85
:10028100FDFC22FCE4CFCECDCC24E0501174FF80E4
:10029100EDC3CC13CCCD13CDCE13CECF13CF047081
:0702A100F030D5DE02045429
:1002A800E9D2E7C933E833F892D5EDD2E7CD33EC9C
:0702B80033FC5002B2D52215
:1002BF00EC30E7100FBF000C0EBE00080DBD0004A0
:1002CF000BEB6014A2D5EB13FCED92E7FD2274FF4C
:1002DF00FCFDFEFF22E480F8A2D574FF13FC7D80A5
:0302EF00E480EFB9
:0300000002071ADA
:0C071A00787FE4F6D8FD75812B020761A2
:1002F200BB010CE58229F582E5833AF583E02250C1
:1003020006E92582F8E622BBFE06E92582F8E2220A
:0D031200E58229F582E5833AF583E4932224
:10031F00EF8DF0A4A8F0CF8CF0A428CE8DF0A42EF2
:02032F00FE22AC
:10033100BC000BBE0029EF8DF084FFADF022E4CCB0
:10034100F875F008EF2FFFEE33FEEC33FCEE9DEC79
:10035100984005FCEE9DFE0FD5F0E9E4CEFD22EDBF
:10036100F8F5F0EE8420D21CFEADF075F008EF2F09
:10037100FFED33FD4007985006D5F0F222C398FDFA
:050381000FD5F0EA2297
:1003860075F008758200EF2FFFEE33FECD33CDCC2E
:1003960033CCC58233C5829BED9AEC99E5829840B1
:1003A6000CF582EE9BFEED9AFDEC99FC0FD5F0D68E
:1003B600E4CEFBE4CDFAE4CCF9A88222B800C1B9B8
:1003C6000059BA002DEC8BF084CFCECDFCE5F0CBF6
:1003D600F97818EF2FFFEE33FEED33FDEC33FCEB2F
:1003E60033FB10D703994004EB99FB0FD8E5E4F9EA
:1003F600FA227818EF2FFFEE33FEED33FDEC33FCD7
:10040600C933C910D7059BE99A4007EC9BFCE99ACA
:10041600F90FD8E0E4C9FAE4CCFB2275F010EF2F0F
:10042600FFEE33FEED33FDCC33CCC833C810D7070F
:100436009BEC9AE899400AED9BFDEC9AFCE899F84A
:0E0446000FD5F0DAE4CDFBE4CCFAE4C8F922DD
:0E045400C3E49FFFE49EFEE49DFDE49CFC22B9
:100726000205EBE493A3F8E493A34003F68001F2F9
:1007360008DFF48029E493A3F85407240CC8C333D4
:10074600C4540F4420C8834004F456800146F6DFA3
:10075600E4800B01020408102040809009C7E47E63
:10076600019360BCA3FF543F30E509541FFEE49398
:10077600A360010ECF54C025E060A840B8E493A35F
:10078600FAE493A3F8E493A3C8C582C8CAC583CA8A
:10079600F0A3C8C582C8CAC583CADFE9DEE780BE42
:0109D5000021
:00000001FF
