:100E7600202020202020202020200000000000002C
:050E8600000000000067
:100DB200C3EF9464EE940040057E007F0322C3EFEC
:100DC2009464EE9400500EC3EF940AEE9400400532
:100DD2007E007F0222C3EF940AEE940050047E004C
:030DE2007F01226C
:10080000E4F508F509F50A750B01F50C780F7C0085
:10081000FD7BFF7A0E7981FE7F0A120AC4120EA0B8
:10082000120B7EEF24FFF509E434FFF508E50964B7
:100830000A45087030750C2BAD0BAB0C7F01120E06
:10084000E974FFF508F509AF0CEF3395E0FEE50B11
:1008500025E0240DF8A60608A607050BE50B703A5F
:10086000050A020948E509640B45087030750C2D2E
:10087000AD0BAB0C7F01120EE9AF0CEF3395E0FE30
:10088000E50B25E0240DF8A60608A60774FFF50879
:10089000F509050BE50B7002050A020948E5096434
:1008A0000C4508702F750C2AAD0BAB0C7F01120E96
:1008B000E9AF0CEF3395E0FEE50B25E0240DF8A63B
:1008C0000608A60774FFF508F509050BE50B70028D
:1008D000050A8074E509640D4508702F750C2FAD6D
:1008E0000BAB0C7F01120EE9AF0CEF3395E0FEE588
:1008F0000B25E0240DF8A60608A60774FFF508F5F9
:1009000009050BE50B7041050A803DC3E5086480CD
:1009100094804034E509940AE50864809480502866
:10092000AD0B751D01AB09AA087F01120E59E50B2D
:1009300025E0240DF8A60808A60974FFF508F509B6
:10094000050BE50B7002050AE50B6406450A60031A
:10095000020820AE0FAF10FC7D0A120B17E5122F14
:10096000FFE5113EAB07FAAE15AF16120B17E518EF
:100970002FFFE5173EFEE50C24D6602124FD601212
:1009800024FE60222404702FEB2FF50EEA3EF50DB5
:100990008025C3EB9FF50EEA9EF50D801AAD03ACE2
:1009A00002120B17800DAC02AD03CFCDCFCECCCE53
:1009B000120B298E0D8F0EAF0EAE0D120DB28F1DC4
:1009C000AB0EAA0D7D017F02120E59750A00750B40
:1009D00001120B7EEF60FA7BFF7A0E79767D017F44
:1009E00001120E187BFF7A0E79767D017F02120EBE
:0409F00018020820C1
:060EC400C2A58F80D2A739
:080ECA007F027EEFDEFEDFFC7B
:010ED20022FD
:0A0EDF00C2A6120EC4C2A7020ECA7A
:100E3B00CFCDCFCECCCE120B297C007D0A120B2945
:040E4B00ED2430FF63
:0A0E4F00D2A6120EC4C2A7020ECAFA
:100EA0007F38120EDF7F0C120EDF7F06120EDF7FFF
:040EB00001020EDF4E
:100EB400EDBF0103148002243F4480FF120EDF22A1
:0A0EE900AC03120EB4AF04020E4F6A
:060E18008B198A1A891BE8
:100E1E00120EB4E4FDAB19AA1AA91B8D82758300BC
:0C0E2E00120AEAFF6006120E4F0D80E968
:010E3A002295
:0C0DE5007F0AEA24FFFDE434FFFC7E00DE
:080DF1008E1E8F1F8C208D2146
:100DF9007F017E00E4FBEBC39521E5206480F87454
:0E0E09008098500AAC1EAD1F120B170B80E82C
:010E170022B8
:040E59008A1B8B1C49
:100E5D00120EB4AA1DEAD39400400D120DE5AC1B81
:080E6D00AD1C120E3B1A80EDD2
:010E7500225A
:100D0700120EB4C3EA64809480400B7F2B120E4FFF
:100D17008A278B28800E7F2D120E4FC3E49BF52860
:100D2700E49AF527AA26EAD39400400D120DE5AC04
:090D370027AD28120E3B1A80EDD5
:010D40002290
:040D41008A2B8B2C42
:100D4500120EB4AA2DEAD3940040297F10120DE7A4
:100D5500AC2BAD2CCFCDCFCECCCE120B29EF540F73
:100D6500FEC3940AEE5004243080022437FF120E8D
:040D75004F1A80D1C0
:010D79002257
:040D7A008A308B31FF
:100D7E00120EB4AA32EAD394004028EA24FFFDE40E
:100D8E0034FFFC7F027E00120DF1AC30AD31CFCDC1
:100D9E00CFCECCCE120B29EF54012430FF120E4FC2
:030DAE001A80D2D6
:010DB100221F
:100E8B00EF1FAC0670011E4C600A7D027CEFDCFE8E
:040E9B00DDFC80EC0E
:010E9F002230
:100B7E00E4F5197590FFC2932097137F14FE120EA1
:100B8E008B3097FD7F147E00120E8B751901209607
:100B9E00147F147E00120E8B3096FD7F147E001291
:100BAE000E8B7519052095147F147E00120E8B3056
:100BBE0095FD7F147E00120E8B7519092094147FFB
:100BCE00147E00120E8B3094FD7F147E00120E8B5D
:100BDE0075190D7590FFC2922097147F147E001226
:100BEE000E8B3097FD7F147E00120E8B751902202E
:100BFE0096147F147E00120E8B3096FD7F147E00AD
:100C0E00120E8B7519062095147F147E00120E8B12
:100C1E003095FD7F147E00120E8B75190A209414E8
:100C2E007F147E00120E8B3094FD7F147E00120E08
:100C3E008B75190E7590FFC2912097147F147E004C
:100C4E00120E8B3097FD7F147E00120E8B751903DA
:100C5E002096147F147E00120E8B3096FD7F147E2C
:100C6E0000120E8B7519072095147F147E00120E3C
:100C7E008B3095FD7F147E00120E8B75190B209410
:100C8E00147F147E00120E8B3094FD7F147E0012A2
:100C9E000E8B75190F7590FFC2902097147F147EDE
:100CAE0000120E8B3097FD7F147E00120E8B75197D
:100CBE00042096147F147E00120E8B3096FD7F1446
:100CCE007E00120E8B7519082095147F147E00126B
:100CDE000E8B3095FD7F147E00120E8B75190C2035
:100CEE0094147F147E00120E8B3094FD7F147E00C0
:080CFE00120E8B751910AF19DD
:010D060022CA
:03000000020ED31A
:0C0ED300787FE4F6D8FD7581320208003B
:1009F400E709F608DFFA8046E709F208DFFA803EE5
:100A040088828C83E709F0A3DFFA8032E309F608D1
:100A1400DFFA8078E309F208DFFA807088828C8339
:100A2400E309F0A3DFFA806489828A83E0A3F608ED
:100A3400DFFA805889828A83E0A3F208DFFA804CC7
:100A440080D280FA80C680D4806980F2803380109E
:100A540080A680EA809A80A880DA80E280CA803307
:100A640089828A83ECFAE493A3C8C582C8CCC5837F
:100A7400CCF0A3C8C582C8CCC583CCDFE9DEE7804F
:100A84000D89828A83E493A3F608DFF9ECFAA9F0CE
:100A9400EDFB2289828A83ECFAE0A3C8C582C8CC24
:100AA400C583CCF0A3C8C582C8CCC583CCDFEADE3D
:100AB400E880DB89828A83E493A3F208DFF980CC9F
:100AC40088F0EF60010E4E60C388F0ED2402B40498
:100AD4000050B9F582EB2402B4040050AF2323453F
:060AE4008223900A447316
:100AEA00BB010CE58229F582E5833AF583E02250C1
:100AFA0006E92582F8E622BBFE06E92582F8E2220B
:0D0B0A00E58229F582E5833AF583E4932224
:100B1700EF8DF0A4A8F0CF8CF0A428CE8DF0A42EF2
:020B2700FE22AC
:100B2900BC000BBE0029EF8DF084FFADF022E4CCB0
:100B3900F875F008EF2FFFEE33FEEC33FCEE9DEC79
:100B4900984005FCEE9DFE0FD5F0E9E4CEFD22EDBF
:100B5900F8F5F0EE8420D21CFEADF075F008EF2F09
:100B6900FFED33FD4007985006D5F0F222C398FDFA
:050B79000FD5F0EA2297
:00000001FF
