:030D55002020203B
:100B1300E4F508F509F50A750B01F50CF50D780EEA
:100B23007C00FD7BFF7A0D7955FE7F031208D012FE
:100B33000D0212098AEF24FFF509E434FFF508C317
:100B430064809480402BE50B9409E50A64809480CB
:100B5300501FE50B2405FD751501AB09AA087F019C
:100B6300120CD074FFF508F509050BE50B700205AF
:100B73000AE50B6409450A70B9E509640C45087078
:100B8300097B5A7D047F02120D4BE509640D45086C
:100B930070097B487D057F02120D4BE509640E4504
:0E0BA30008708F7B597D067F02120D4B8084F7
:060D2600C2A58F80D2A7D8
:080D2C007F027EEFDEFEDFFC1A
:010D3400229C
:0A0D4100C2A6120D26C2A7020D2C57
:100CB200CFCDCFCECCCE1209357C007D0A120935BC
:040CC200ED2430FFEE
:0A0CC600D2A6120D26C2A7020D2CC3
:100D02007F38120D417F0C120D417F06120D417F7B
:040D120001020D418C
:100D1600EDBF0103148002243F4480FF120D4122DF
:0A0D4B00AC03120D16AF04020CC633
:060C8F008B2B8A2C892D3D
:100C9500120D16E4FDAB2BAA2CA92D8D82758300B0
:0C0CA5001208F6FF6006120CC60D80E974
:010CB1002220
:0C0C5C007F0AEA24FFFDE434FFFC7E0068
:080C68008E168F178C188D19F0
:100C70007F017E00E4FBEBC39519E5186480F874EE
:0E0C80008098500AAC16AD171209230B80E8BD
:010C8E002243
:040CD0008A138B14E4
:100CD400120D16AA15EAD39400400D120C5CAC1345
:080CE400AD14120CB21A80EDF0
:010CEC0022E5
:100BB100120D16C3EA64809480400B7F2B120CC681
:100BC1008A1F8B20800E7F2D120CC6C3E49BF5205B
:100BD100E49AF51FAA1EEAD39400400D120C5CACF6
:090BE1001FAD20120CB21A80EDC8
:010BEA0022E8
:040BEB008A238B24AA
:100BEF00120D16AA25EAD3940040297F10120C5E2D
:100BFF00AC23AD24CFCDCFCECCCE120935EF540FD1
:100C0F00FEC3940AEE5004243080022437FF120CE6
:040C1F00C61A80D1A0
:010C230022AE
:040C24008A288B2966
:100C2800120D16AA2AEAD394004028EA24FFFDE40C
:100C380034FFFC7F027E00120C68AC28AD29CFCDB2
:100C4800CFCECCCE120935EF54012430FF120CC69A
:030C58001A80D22D
:010C5B002276
:100CED00EF1FAC0670011E4C600A7D027CEFDCFE2E
:040CFD00DDFC80ECAE
:010D010022CF
:10098A00E4F5117590FFC2932097137F14FE120CA1
:10099A00ED3097FD7F147E00120CED751101209643
:1009AA00147F147E00120CED3096FD7F147E001227
:1009BA000CED7511052095147F147E00120CED3094
:1009CA0095FD7F147E00120CED7511092094147F99
:1009DA00147E00120CED3094FD7F147E00120CED93
:1009EA0075110D7590FFC2922097147F147E001224
:1009FA000CED3097FD7F147E00120CED751102206C
:100A0A0096147F147E00120CED3096FD7F147E0042
:100A1A00120CED7511062095147F147E00120CED50
:100A2A003095FD7F147E00120CED75110A20941486
:100A3A007F147E00120CED3094FD7F147E00120CA0
:100A4A00ED75110E7590FFC2912097147F147E00E8
:100A5A00120CED3097FD7F147E00120CED75110318
:100A6A002096147F147E00120CED3096FD7F147EC2
:100A7A0000120CED7511072095147F147E00120CDC
:100A8A00ED3095FD7F147E00120CED75110B20944C
:100A9A00147F147E00120CED3094FD7F147E001238
:100AAA000CED75110F7590FFC2902097147F147E7C
:100ABA0000120CED3097FD7F147E00120CED7511BB
:100ACA00042096147F147E00120CED3096FD7F14DC
:100ADA007E00120CED7511082095147F147E001209
:100AEA000CED3095FD7F147E00120CED75110C2073
:100AFA0094147F147E00120CED3094FD7F147E0056
:080B0A00120CED751110AF1182
:010B120022C0
:03000000020D35B9
:0C0D3500787FE4F6D8FD75812D020B13C9
:10080000E709F608DFFA8046E709F208DFFA803EDA
:1008100088828C83E709F0A3DFFA8032E309F608C7
:10082000DFFA8078E309F208DFFA807088828C832F
:10083000E309F0A3DFFA806489828A83E0A3F608E3
:10084000DFFA805889828A83E0A3F208DFFA804CBD
:1008500080D280FA80C680D4806980F28033801094
:1008600080A680EA809A80A880DA80E280CA8033FD
:1008700089828A83ECFAE493A3C8C582C8CCC58375
:10088000CCF0A3C8C582C8CCC583CCDFE9DEE78045
:100890000D89828A83E493A3F608DFF9ECFAA9F0C4
:1008A000EDFB2289828A83ECFAE0A3C8C582C8CC1A
:1008B000C583CCF0A3C8C582C8CCC583CCDFEADE33
:1008C000E880DB89828A83E493A3F208DFF980CC95
:1008D00088F0EF60010E4E60C388F0ED2402B4048E
:1008E0000050B9F582EB2402B4040050AF23234535
:0608F00082239008507302
:1008F600BB010CE58229F582E5833AF583E02250B7
:1009060006E92582F8E622BBFE06E92582F8E22200
:0D091600E58229F582E5833AF583E493221A
:10092300EF8DF0A4A8F0CF8CF0A428CE8DF0A42EE8
:02093300FE22A2
:10093500BC000BBE0029EF8DF084FFADF022E4CCA6
:10094500F875F008EF2FFFEE33FEEC33FCEE9DEC6F
:10095500984005FCEE9DFE0FD5F0E9E4CEFD22EDB5
:10096500F8F5F0EE8420D21CFEADF075F008EF2FFF
:10097500FFED33FD4007985006D5F0F222C398FDF0
:050985000FD5F0EA228D
:00000001FF
