:03000000020016E5
:0C001600787FE4F6D8FD75811A02005DC9
:0B0006000910FFFEFDFBF7EFDFBF7FDE
:0400FF007FF47E010B
:10010300EF1FAA0670011E4A600BE4FDEDC3947B4A
:0501130050EE0D80F725
:0101180022C4
:0E00A200D2A8D2AAD2AFC2B8D2BAD288D28A1D
:1000B000E4F519F51A1200FF7410251AF8E6F5A0F8
:1000C000051AE51A70020519C39409E51994004050
:0300D000E480DDEC
:03000300020119DE
:10011900C0E0C0D075D00075A00F1200FF75A0F027
:050129001200FF80F24E
:030013000200D315
:0B00D300C0E0C083C082C0D075D00820
:1000DE0090000075A0FF1200FF75A0001200FFA394
:0800EE00E5826406458370EB16
:0900F600D0D0D082D083D0E032DA
:100022000200A2E493A3F8E493A34003F68001F252
:1000320008DFF48029E493A3F85407240CC8C333DF
:10004200C4540F4420C8834004F456800146F6DFAE
:10005200E4800B0102040810204080900006E47E38
:10006200019360BCA3FF543F30E509541FFEE493A3
:10007200A360010ECF54C025E060A840B8E493A36A
:10008200FAE493A3F8E493A3C8C582C8CAC583CA95
:10009200F0A3C8C582C8CAC583CADFE9DEE780BE4D
:0100110000EE
:00000001FF
