:080C42000000000000000000AA
:0F0C32000A093F065B4F666D7D077F6F0108FF64
:030BAD00FD7C00CC
:100BB000EF14B408005054900BC575F003A4C5831E
:100BC00025F0C58373020BDD020BE1020BE5020B7E
:100BD000E9020BED020BF5020BFD020C05D2A4801D
:100BE0000ED2A48012D2A48016D2A4801AC2A4D29B
:100BF000A3D2A28016C2A4D2A3C2A2800EC2A4C253
:100C0000A3D2A28006C2A4C2A3C2A274092DF8E690
:0D0C1000F5807F017E00120C1DE4F58022AE
:100A7F00E4F51378147C00FD7BFF7A0C7942FE7F3E
:100A8F0008120A59751CC8120800EF14F508C36440
:100A9F00809480402374142513F8A608E51CD39482
:100AAF00004010E508FD3395E0FC7F08120BB015F0
:100ABF001C80E9751CC80513E513B408CAE4F513C7
:100ACF00120800EF70C1E5147F01120BADE5157F21
:100ADF0002120BADE516FD7C007F03120BB0E5177C
:100AEF00FD7C007F04120BB0E518FD7C007F051222
:100AFF000BB0E519FD7C007F06120BB0E51AFD7CEB
:100B0F00007F07120BB0E51BFD7C007F08120BB0B6
:020B1F0080AEA6
:100C1D00EF1FAC0670011E4C600A7D027CEFDCFEFE
:040C2D00DDFC80EC7E
:010C310022A0
:10080000E4F51D7590FFC2932097137F14FE120C20
:100810001D3097FD7F147E00120C1D751D01209662
:10082000147F147E00120C1D3096FD7F147E001282
:100830000C1D751D052095147F147E00120C1D30B3
:1008400095FD7F147E00120C1D751D092094147FE8
:10085000147E00120C1D3094FD7F147E00120C1DBE
:10086000751D0D7590FFC2922097147F147E0012A3
:100870000C1D3097FD7F147E00120C1D751D02208B
:1008800096147F147E00120C1D3096FD7F147E009E
:10089000120C1D751D062095147F147E00120C1D70
:1008A0003095FD7F147E00120C1D751D0A209414D6
:1008B0007F147E00120C1D3094FD7F147E00120CFC
:1008C0001D751D0E7590FFC2912097147F147E0038
:1008D000120C1D3097FD7F147E00120C1D751D0338
:1008E0002096147F147E00120C1D3096FD7F147E1E
:1008F00000120C1D751D072095147F147E00120C2C
:100900001D3095FD7F147E00120C1D751D0B20946B
:10091000147F147E00120C1D3094FD7F147E001293
:100920000C1D751D0F7590FFC2902097147F147ECB
:1009300000120C1D3097FD7F147E00120C1D751DDA
:10094000042096147F147E00120C1D3096FD7F1437
:100950007E00120C1D751D082095147F147E001258
:100960000C1D3095FD7F147E00120C1D751D0C2092
:1009700094147F147E00120C1D3094FD7F147E00B1
:08098000120C1D751D10AF1DC6
:01098800224C
:03000000020B21CF
:0C0B2100787FE4F6D8FD75811D020B689A
:10098900E709F608DFFA8046E709F208DFFA803E50
:1009990088828C83E709F0A3DFFA8032E309F6083D
:1009A900DFFA8078E309F208DFFA807088828C83A5
:1009B900E309F0A3DFFA806489828A83E0A3F60859
:1009C900DFFA805889828A83E0A3F208DFFA804C33
:1009D90080D280FA80C680D4806980F2803380100A
:1009E90080A680EA809A80A880DA80E280CA803373
:1009F90089828A83ECFAE493A3C8C582C8CCC583EB
:100A0900CCF0A3C8C582C8CCC583CCDFE9DEE780BA
:100A19000D89828A83E493A3F608DFF9ECFAA9F039
:100A2900EDFB2289828A83ECFAE0A3C8C582C8CC8F
:100A3900C583CCF0A3C8C582C8CCC583CCDFEADEA8
:100A4900E880DB89828A83E493A3F208DFF980CC0A
:100A590088F0EF60010E4E60C388F0ED2402B40403
:100A69000050B9F582EB2402B4040050AF232345AA
:060A790082239009D973ED
:100B2D00020A7FE493A3F8E493A34003F68001F255
:100B3D0008DFF48029E493A3F85407240CC8C333C9
:100B4D00C4540F4420C8834004F456800146F6DF98
:100B5D00E4800B0102040810204080900C32E47EEA
:100B6D00019360BCA3FF543F30E509541FFEE4938D
:100B7D00A360010ECF54C025E060A840B8E493A354
:100B8D00FAE493A3F8E493A3C8C582C8CAC583CA7F
:100B9D00F0A3C8C582C8CAC583CADFE9DEE780BE37
:010C410000B2
:00000001FF
