:100BDC002020202020202020202020202020200029
:100A1D00E4F508F509F50A750B01120BC81208006B
:100A2D00EF24FFF509E434FFF508C364809480409A
:100A3D001CAD0B751001AB09AA087F01120B967442
:100A4D00FFF508F509050BE50B7002050AE50B64CA
:100A5D000C450A70C87BFF7A0B79DC7D017F011292
:0A0A6D000B55750A00750B0180B3EC
:060BFC00C2A58F80D2A704
:080C02007F027EEFDEFEDFFC45
:010C0A0022C7
:0A0C1700C2A6120BFCC2A7020C02D9
:100B7800CFCDCFCECCCE1209C87C007D0A1209C8D1
:040B8800ED2430FF29
:0A0B8C00D2A6120BFCC2A7020C0255
:100BC8007F38120C177F0C120C177F06120C177F38
:040BD80001020C17F3
:100BEC00EDBF0103148002243F4480FF120C172236
:0A0C2100AC03120BECAF04020B8CC5
:060B55008B0C8A0D890ED5
:100B5B00120BECE4FDAB0CAA0DA90E8D8275830074
:0C0B6B00120989FF6006120B8C0D80E956
:010B7700225B
:0C0B22007F0AEA24FFFDE434FFFC7E00A3
:080B2E008E118F128C138D143F
:100B36007F017E00E4FBEBC39514E5136480F87433
:0E0B46008098500AAC11AD121209B60B80E86F
:010B5400227E
:040B96008A0E8B0F29
:100B9A00120BECAA10EAD39400400D120B22AC0EF1
:080BAA00AD0F120B781A80ED6B
:010BB2002220
:100A7700120BECC3EA64809480400B7F2B120B8C23
:100A87008A1A8B1B800E7F2D120B8CC3E49BF51BE0
:100A9700E49AF51AAA19EAD39400400D120B22AC76
:090AA7001AAD1B120B781A80ED48
:010AB0002223
:040AB1008A1E8B1FEF
:100AB500120BECAA20EAD3940040297F10120B24D4
:100AC500AC1EAD1FCFCDCFCECCCE1209C8EF540F83
:100AD500FEC3940AEE5004243080022437FF120B23
:040AE5008C1A80D116
:010AE90022EA
:040AEA008A238B24AC
:100AEE00120BECAA25EAD394004028EA24FFFDE479
:100AFE0034FFFC7F027E00120B2EAC23AD24CFCD33
:100B0E00CFCECCCE1209C8EF54012430FF120B8C7D
:030B1E001A80D268
:010B210022B1
:100BB300EF1FAC0670011E4C600A7D027CEFDCFE69
:040BC300DDFC80ECE9
:010BC700220B
:10080000E4F50C7590FFC2932097137F14FE120B32
:10081000B33097FD7F147E00120BB3750C01209648
:10082000147F147E00120BB33096FD7F147E0012ED
:100830000BB3750C052095147F147E00120BB3309A
:1008400095FD7F147E00120BB3750C092094147F64
:10085000147E00120BB33094FD7F147E00120BB394
:10086000750C0D7590FFC2922097147F147E0012B4
:100870000BB33097FD7F147E00120BB3750C022072
:1008800096147F147E00120BB33096FD7F147E0009
:10089000120BB3750C062095147F147E00120BB357
:1008A0003095FD7F147E00120BB3750C0A20941452
:1008B0007F147E00120BB33094FD7F147E00120B68
:1008C000B3750C0E7590FFC2912097147F147E00B3
:1008D000120BB33097FD7F147E00120BB3750C031F
:1008E0002096147F147E00120BB33096FD7F147E89
:1008F00000120BB3750C072095147F147E00120BA9
:10090000B33095FD7F147E00120BB3750C0B209451
:10091000147F147E00120BB33094FD7F147E0012FE
:100920000BB3750C0F7590FFC2902097147F147E47
:1009300000120BB33097FD7F147E00120BB3750CC1
:10094000042096147F147E00120BB33096FD7F14A2
:100950007E00120BB3750C082095147F147E0012D4
:100960000BB33095FD7F147E00120BB3750C0C2079
:1009700094147F147E00120BB33094FD7F147E001C
:08098000120BB3750C10AF0C53
:01098800224C
:03000000020C0BE4
:0C0C0B00787FE4F6D8FD758125020A1DF3
:10098900BB010CE58229F582E5833AF583E0225023
:1009990006E92582F8E622BBFE06E92582F8E2226D
:0D09A900E58229F582E5833AF583E4932287
:1009B600EF8DF0A4A8F0CF8CF0A428CE8DF0A42E55
:0209C600FE220F
:1009C800BC000BBE0029EF8DF084FFADF022E4CC13
:1009D800F875F008EF2FFFEE33FEEC33FCEE9DECDC
:1009E800984005FCEE9DFE0FD5F0E9E4CEFD22ED22
:1009F800F8F5F0EE8420D21CFEADF075F008EF2F6C
:100A0800FFED33FD4007985006D5F0F222C398FD5C
:050A18000FD5F0EA22F9
:00000001FF
