:03000000020800F3
:0C080000787FE4F6D8FD75810F020847F0
:0A0921000808FEFDFBF7EFDFBF7FC3
:0C0900007FFA12090C75A0FF7FFA7E0040
:10090C00EF1FAC0670011E4C600A7D027CEFDCFE12
:04091C00DDFC80EC92
:0109200022B4
:10088C00E4FB20B0167F507E0012090C30B10C7BBB
:10089C000575A0557E00120900DBF620B1157F50BE
:1008AC007E0012090C30B00B7B0AE4F5A0FE120995
:1008BC0000DBF720B12120B01E7B0720B11920B03E
:1008CC001674082BF8E6F5A07FC87E0012090C1BE5
:1008DC00BBFFE87B0780E430B1A830B0A58508A049
:1008EC007F2C7E0112090C75A0FF7FC87E001209B7
:0408FC000C02088E54
:10080C0002088CE493A3F8E493A34003F68001F26E
:10081C0008DFF48029E493A3F85407240CC8C333ED
:10082C00C4540F4420C8834004F456800146F6DFBC
:10083C00E4800B0102040810204080900921E47E22
:10084C00019360BCA3FF543F30E509541FFEE493B1
:10085C00A360010ECF54C025E060A840B8E493A378
:10086C00FAE493A3F8E493A3C8C582C8CAC583CAA3
:10087C00F0A3C8C582C8CAC583CADFE9DEE780BE5B
:01092B0000CB
:00000001FF
